:100000000C943A000C9457000C9457000C94570031
:100010000C9457000C9457000C9457000C94570004
:100020000C9457000C9457000C9457000C945700F4
:100030000C9457000C9457000C9457000C945700E4
:100040000C9457000C9457000C9457000C945700D4
:100050000C9457000C9457000C9457000C945700C4
:100060000C9457000C9457000C9457000C945700B4
:100070000C94570011241FBECFEFD4E0DEBFCDBFDC
:1000800013E0A0E0B1E0E2E8F0E102C005900D92DB
:10009000A23BB107D9F723E0A2EBB3E001C01D9268
:1000A000AF3CB207E1F70E9444070C943F080C9460
:1000B00000000E947D0581E090E00E948E0687E7A7
:1000C00093E00E947B0682E090E09093B7038093D8
:1000D000B60387E50C9460018091B4039091B50359
:1000E000209102013091030182179307BCF4209103
:1000F000000130910101232B89F08931910574F4BD
:1001000001969093B5038093B403880F991FFC0167
:10011000EC5FFE4F808191810C947B060895809165
:10012000000190910101892B81F180910201909150
:1001300003012091B4033091B503AC014150510942
:100140002417350734F0215031093093B50320933B
:10015000B4032091B4033091B503029728173907EF
:10016000A4F02931310579F060E080E00E94390780
:100170008091B4030E9460010E947D0510920101EC
:100180001092000108950C94590008958091000187
:1001900090910101892B01F12091B4033091B503B5
:1001A0008091020190910301029728173907A4F06A
:1001B0002931310579F060E080E00E9439078091B3
:1001C000B4030E9460010E947D051092010110920B
:1001D000000108950C94590008950E945801082EBA
:1001E000000C990B9093B5038093B403880F991F6B
:1001F000FC01EC5FFE4F808191810E947B0661E0F3
:1002000080E00E9439078091B4039091B503039672
:10021000909303018093020181E090E090930101AB
:10022000809300010895CF93DF9384E00E94A3039D
:10023000882329F183E090E09093030180930201E9
:100240001092B5031092B403C1E0D0E0D093B7038D
:10025000C093B6030E947D05E091B403F091B5030D
:10026000EE0FFF1FEC5FFE4F808191810E947B06A5
:10027000D093B303C093B20383E50E9460010E9450
:100280005601882381F00E945801833561F40E9451
:100290007D0581E090E09093B7038093B60390933F
:1002A000B3038093B203DF91CF9108950C948D0234
:1002B0000C94AE020C9493020C9499020C949F023D
:1002C0000E949F020E9499028823E1F38CE291E050
:1002D0000197F1F70E948D0281110C945801089545
:1002E0000C94B502CF93DF9300D00F92CDB7DEB759
:1002F00080914D0390914E03A0914F0389839A837F
:10030000AB83509A589A0E9463028FE690E00E9455
:10031000FB0181E090E00E94520261E070E081E028
:1003200090E00E943F020E942B02CE0101960E94A3
:1003300075020F900F900F90DF91CF910895CF939A
:10034000DF93EC01D901FB0120E030E080E061E0C7
:1003500070E0841304C02C93DF91CF9108959191A4
:100360009B01092E02C0220F331F0A94E2F72F5F70
:100370003F4F369527952C0F3D1F02C03695279588
:100380009A95E2F72F3F310531F328F38F5FE1CFE4
:10039000E1E6F0E080E880831082A89584B7877F4B
:1003A00084BFE0E6F0E08081886180831082089558
:1003B0001092800084E0809381001092850010925A
:1003C00084000895809184009091850008959C0197
:1003D0008091840090918500AC01421B530B483EF4
:1003E0005340B0F708952091840030918500820F2A
:1003F000931F0C94E701CF93DF930F92CDB7DEB735
:100400009E012F5F3F4F45E060E573E00E949F0132
:10041000E82F81E08E0F80933A018981815087BD5A
:1004200018BC85B58770882339F095B580913A015D
:100430008770987F892B85BD898190E0F0E0E05B33
:10044000FC4F208102C0880F991F2A95E2F70F9078
:10045000DF91CF91089585B3897F85BB95B5809154
:100460003A018770987F892B85BD089585B5887F6F
:1004700085BD089585B382FB882780F9089500978C
:1004800019F0019751F0089584B58F736295660F46
:10049000660F607C682B64BD089584B562956073B7
:1004A0008F7CF8CF009721F0019739F080E0089514
:1004B00084B58C7F84BD81E0089584B58E7F84BD32
:1004C00084B58260F7CF14BC15BC16BC18BC81E0A3
:1004D00090E00E94520281E008959C010197909360
:1004E000CD0021502093CC000895CF93DF93EC01F1
:1004F000888199810E946D028A819BEF980F9430C8
:1005000008F088E098E19093C9008550880F8093A7
:10051000CA0081E0DF91CF9108958091C800881FC3
:100520008827881F08958091C80085FB882780F957
:1005300008958091C80086FB882780F90895CF939D
:10054000C82F0E9493028823E1F38091C800806441
:100550008093C800C093CE00CF9108958091C800C9
:1005600087FFFCCF8091CE000895CF93DF93EC01FD
:100570008991811103C0DF91CF9108950E949F025C
:10058000F7CF8530B8F46730A8F421E030E0F90106
:1005900002C0EE0FFF1F6A95E2F7BF01E82FF0E0FF
:1005A000E754FC4F862F80959081892341954623FF
:1005B000842B80830895853088F4673078F4E82FA1
:1005C000F0E0E754FC4F81E090E001C0880F6A95AD
:1005D000EAF79081982381E0911101C080E00895AD
:1005E0006091B803E62FF0E0E754FC4F80810E9451
:1005F0003A038091B8038F5F853008F080E08093E4
:10060000B8030895E9EBF3E010821182128213829D
:10061000148208950E9418030C9402039C01FC01AB
:10062000FF2784A1832B84A385A1832B85A3089511
:10063000CF93DF93CFE5D3E0899199910E940E0388
:1006400083E0CD36D807C1F783E090E40E940E0323
:1006500080E090E80E940E0383E090E10E940E0388
:1006600083E090E80E940E0383E090E2DF91CF9157
:100670000C940E03E091BE03F0E0EE0FFF1FEB5A67
:10068000FC4F20813181F901FF2795A1932B95A380
:10069000AFE5B3E04DE653E02D913D91F901FF2721
:1006A00080FF1BC025A1932F9095922395A386953B
:1006B0004A175B0789F7E62FF0E0EE0FFF1FEB5AB2
:1006C000FC4F80819181FC01FF2725A1892F809516
:1006D000822385A36093BE03089595A1932BE6CF53
:1006E0009C016330710561F038F461307105D9F017
:1006F0006230710509F108956430710561F0089563
:10070000F901FF2784A1832B84A395A1832F8095D2
:10071000892385A30895F901FF2784A1832B84A34E
:1007200085A1832BF6CFF901FF2794A1832F809514
:10073000982394A395A1ECCFF901FF2794A1832FCF
:1007400080958923ECCFE82FF0E0EE0FFF1FE154F6
:10075000FC4F8081882329F0818191E08927817075
:10076000089580E090E0FBCFE82FF0E0EE0FFF1F50
:10077000E154FC4F8081811103C081818170089513
:1007800080E090E0FBCFE82FF0E0EE0FFF1FE15498
:10079000FC4F80810895E82FF0E0EE0FFF1FE15439
:1007A000FC4F808191E0892708958F929F92AF92AC
:1007B000BF92CF92DF92EF92FF920F931F93CF934E
:1007C000DF9300D00F92CDB7DEB78FEB93E09B8322
:1007D0008A839DE6C92E93E0D92E26E0922EEA81E7
:1007E000FB8180818183F601019111916F01580194
:1007F000BB24F50124A1E12EFF2485A190E08E21E8
:100800009F2130E02E213F21232B09F43DC0892B6D
:1008100009F43FC0F4E0F983812C64E070E0C80182
:100820000E94700362E070E0C8010E947003892D8D
:100830008A95F1F7F50183A190E08E219F2121E0B7
:10084000892B09F020E0EA81FB8120836981782DE2
:10085000C8010E9470038A819B8102969B838A83D0
:10086000895C934009F0BBCF0F900F900F90DF9100
:10087000CF911F910F91FF90EF90DF90CF90BF909D
:10088000AF909F908F900895892B31F421E02983B8
:10089000C3CF83E08983C0CF92E09983BDCF089511
:1008A000FC01892B59F08381681B67FD04C081E03E
:1008B0009481691708F080E08170089580E00895C0
:1008C000FC01A62F622F892B51F18181481738F541
:1008D0009281291720F59381A91BA7FD20C0B0E0C4
:1008E000248130E0A217B307D4F40E94AD07480F6B
:1008F000858190E0BD010E94B607242F269526959C
:100900002695E80FF91FE20FF11D868190E04770F0
:1009100002C0959587954A95E2F78170089580E029
:100920000895CF93DF93EC010E94D8019E0140E02F
:1009300050E062E17AE780E090E00E94EF073093B8
:10094000CC032093CB03DF91CF9108958091C9030D
:100950009091CA030E94E7018091C9039091CA0354
:100960002091CB033091CC03820F931F9093CA0345
:100970008093C9030895692F0C94DB0241E0611153
:1009800001C040E0692F0C94C1020C94BE045F9238
:100990006F927F928F929F92AF92BF92CF92DF928F
:1009A000EF92FF920F931F93CF93DF93862E772EB4
:1009B000942E682E592EB62EA72E062E000C770BDD
:1009C000E82F082E000CFF0B8B010E1B1F0B272D91
:1009D000072C000C330B492F092E000C550BE90195
:1009E000C41BD50B17FF59C0DD24DA94D7FD02C014
:1009F000DD24D3948F01061B170BCC24CA94D7FF98
:100A000003C0EA01C21BD30B0C171D076CF1780160
:100A100017FF03C08FEFE81AF80AF594E794A92EA0
:100A2000681014C0692D8B2D9A2DDF91CF911F91E5
:100A30000F91FF90EF90DF90CF90BF90AF909F907D
:100A40008F907F906F905F900C94BE04692D862DDF
:100A50009A2D0E94BE04EC1AFD0AF7FE03C0E00EB8
:100A6000F11EAD0C6C0CDCCF7E01D7FF03C09FEFF5
:100A7000E91AF90AF594E794B82E571499F2692DFA
:100A80008B2D952D0E94BE04E01AF10AF7FE03C0DB
:100A9000EC0EFD1EBC0C5D0CF0CFCC24C394DD2409
:100AA000DA94D7FDAECFDD24D394AECFFF920F936F
:100AB0001F93CF93DF93D82FF92E162FC72F042F14
:100AC000792F0E94C704402F6D2F7C2F8D2F9F2DD3
:100AD0000E94C704402F612F7C2F812F9F2D0E94E1
:100AE000C704402F612F7C2F8D2F9C2FDF91CF913A
:100AF0001F910F91FF900C94C7040E940203EBE337
:100B0000F1E0118A14860895DF92EF92FF920F931D
:100B10001F93CF93DF93D82E7B01C62F0F2D80918B
:100B20003D0190913E01D0E0019751F1CE2DCD0FC6
:100B3000E0914301F09144018181D81708F45CC031
:100B4000D0E0E0914301F09144018281D81708F48C
:100B500055C0CF5F27C0212F4D2F6D2D0E946004FF
:100B6000682F8E2D810F902F0E94BE041F5F8091F1
:100B7000430190914401FC012281121760F3DF5F71
:100B80000F2D0D1BE0914301F09144018181D81795
:100B900098F0D0E0E0914301F09144018281D817B0
:100BA00068F001508C2F902FDF91CF911F910F9102
:100BB000FF90EF90DF90089510E0D9CF60E08E2D88
:100BC0008D0F902F0E94BE04DF5FE4CF212F4D2FA9
:100BD0006D2D0E946004682F8C2F9F2D910F0E9415
:100BE000BE041F5F8091430190914401FC0122816A
:100BF000121760F3DF5F9ACF10E0F4CF60E08C2F24
:100C00009F2D9D0F0E94BE04DF5F9BCF1F93CF934C
:100C1000DF93EC0110E08991882341F00E94840564
:100C2000BC011F5F853014F477FFF5CF812FDF9172
:100C3000CF911F9108950F931F93CF93DF93EC01F2
:100C4000362F272F109247014093480110924B01F5
:100C500000914301109144010115110509F446C0AA
:100C6000F8018181609141017091420190E00E9400
:100C7000B607BC0180914501909146010E94C707CB
:100C8000CB016AE070E00E94B60790934A0180931E
:100C9000490130933F012093400140E250E0BE0102
:100CA0008CE491E00E94300880913B0190913C01DE
:100CB0000197E1F4FE0101900020E9F73197BF01AF
:100CC0006C1B7D0BF80181818F5F0E94AD07815005
:100CD00020913D0130913E0197E02130310509F02E
:100CE00095E0981718F48EEF80934B01DF91CF9128
:100CF0001F910F91089520913D0130913E0176E0C2
:100D00002130310509F070E04FEF60E00C941B06D4
:100D100090E09093420180934101089590933C01AB
:100D200080933B01089590933E0180933D01089587
:100D3000909344018093430108958091CD03909155
:100D4000CE0301969093CE038093CD032091490169
:100D500030914A018217930708F442C01092CE03E3
:100D60001092CD03E0914701F0E0E55CFE4F8189F0
:100D7000811109C080914801823090F181508093A7
:100D80004801109247018091470190E0FC01E55C29
:100D9000FE4F2189222321F140913B0150913C01DA
:100DA00020914B0141155105E9F04130510559F1B0
:100DB00080914B018F5F80934B01082E000C990BA3
:100DC000E0914301F0914401218130E02817390777
:100DD0003CF410924B01809147018F5F8093470153
:100DE0000C94F0022111E4CF60913F017091400119
:100DF000845B9E4F0E940606909147019150980F88
:100E000090934701D5CF60913F017091400140918F
:100E10003D0150913E014130510531F4720F845B28
:100E20009E4F0E940606C4CF621BF9CFCF93DF937B
:100E3000CBE3D1E09B878A870E940A0384E190E09C
:100E40009F838E83DF91CF910C947D059B0166E09B
:100E500070E00E94B607820F931F089566E070E06D
:100E60000E94DB07CB01089566E070E00E94DB077B
:100E70000895811105C0662311F0429A08954298A1
:100E800008953A9A429A08950E94C8010E944F0418
:100E90000E9472010E94410786E292E00E94910442
:100EA00086E292E00E9416078CE691E00E94980686
:100EB0008AE00E94880680913801909139010E9451
:100EC0007B0600E611E0C3E0D0E00E94A6040E9489
:100ED0009D060E94D5030E94F0028091B603909176
:100EE000B7038130910521F0A8F1029711F1EDCF00
:100EF00080E00E94A30381110E946C0082E00E94A6
:100F0000A30381110E948F0084E00E94A30381113A
:100F10000E94C6000E9456018823B9F207351105C8
:100F200029F48DE793E00E947B06CFCF0E94ED006D
:100F3000CCCF84E00E94A303882339F280E090E0C4
:100F40000E948E06D0930301C09302011092B50354
:100F50001092B4030E941301B8CF002480FD060E46
:100F6000660F11F08695D1F7802D0895002455273E
:100F700004C0080E591F880F991F009729F0769515
:100F80006795B8F37105B9F7802D952F0895AA1BC1
:100F9000BB1B51E107C0AA1FBB1FA617B70710F064
:100FA000A61BB70B881F991F5A95A9F78095909596
:100FB000BC01CD01089597FB072E16F4009407D0CD
:100FC00077FD09D00E94C70707FC05D03EF4909535
:100FD00081959F4F0895709561957F4F0895052ED7
:100FE00097FB1EF400940E94060857FD07D00E944C
:100FF0000E0807FC03D04EF40C940608509540955B
:10100000309521953F4F4F4F5F4F089590958095B4
:10101000709561957F4F8F4F9F4F0895A1E21A2ED3
:10102000AA1BBB1BFD010DC0AA1FBB1FEE1FFF1F8C
:10103000A217B307E407F50720F0A21BB30BE40BDC
:10104000F50B661F771F881F991F1A9469F7609523
:101050007095809590959B01AC01BD01CF010895DD
:10106000FB01DC014150504048F001900D920020FE
:10107000C9F701C01D9241505040E0F70895F8941F
:02108000FFCFA0
:10108200010003007F038103830385038703890330
:101092008B038D038F0391039303950397039903A6
:1010A2009B039D039F037B03A103A303A503A70344
:1010B2007D03A903AB03AD03AF03010000000000F1
:1010C200001400000000000000000000000000000A
:1010D200000000000000000000000000000000000E
:1010E20000000000000000000000000001050720D1
:1010F2005F050000000000C6186380014A29000055
:10110200004A7DF59502C417471F01632222320669
:1011120026155193058608000000880821080282DE
:1011220020848800805457090080904F08000000F6
:1011320060880000800F00000000008C0100222265
:1011420002002EE63AA303C4104288032E4244C48E
:10115200072E4207A30388A9F411023F8407A303C1
:101162002E8617A3033F424408012E4617A3032EDF
:10117200460FA303C018600C00C01860880088885E
:10118200200802007CF0010082208888002E424460
:1011920000012E425BAB0344C51F63042FC617E355
:1011A200032E8610A2032FC618E3033F8417C2073B
:1011B2003F841742002E861EA30731C61F63048E8A
:1011C20010428803104218A303319551520421841E
:1011D20010C20771D71A630471D61C63042EC61895
:1011E200A3032FC61742002EC65893052FC61763B6
:1011F200042E0607A3039F1042080131C618A30359
:1012020031C618150131C65AAB02312AA262043125
:101212002A4208011F2222C207278410C201200885
:101222008220000E2184900344450000000000004B
:10123200C00782200000000038E8A30721B419E3A8
:101242000300B810A20310DA1CA30700B8F8830346
:101252004C8A238400C0C7E8A10321B419630404A3
:1012620018428803083084920121A4324A0286106F
:1012720042880300AC5A630400B419630400B8182E
:10128200A30300BCF8420000D8EC210400B41942C8
:101292000000B8E0E003421C21240300C418B30597
:1012A20000C418150100C45AAB020044455404009E
:1012B200C4E8A103007C44C40788104108028410DA
:1012C200420801821044880000888A0000D0000889
:1012D200000306080A034000800310038003200075
:1012E20040002000100008000400020001038003F7
:1012F200400320008003104C4F53455200570041D9
:1013020000420043004400450046004700480049AF
:10131200004A004B004C004D004E004F005000515F
:10132200005300540055005600580059005A00302E
:021332000000B9
:00000001FF
