:100000000C943A000C9457000C9457000C94570031
:100010000C9457000C9457000C9457000C94570004
:100020000C9457000C9457000C9457000C945700F4
:100030000C9457000C9457000C9457000C945700E4
:100040000C9457000C9457000C9457000C945700D4
:100050000C9457000C9457000C9457000C945700C4
:100060000C9457000C9457000C9457000C945700B4
:100070000C94570011241FBECFEFD4E0DEBFCDBFDC
:1000800013E0A0E0B1E0EAEBF0E102C005900D92D0
:10009000AA3CB107D9F723E0AAECB3E001C01D9256
:1000A000A53EB207E1F70E946D070C945B080C9423
:1000B00000008091CA039091CB03209104013091FC
:1000C000050182179307BCF42091020130910301CE
:1000D000232B89F08931910574F401969093CB0319
:1000E0008093CA03880F991FFC01EA5FFE4F80814D
:1000F00091810C94A40608958091020190910301CE
:10010000892BD9F08091CA039091CB0320910401EF
:1001100030910501215031098217930774F001973E
:100120009093CB038093CA03880F991FFC01EA5F69
:10013000FE4F808191810C94A40608958091020164
:1001400090910301892B71F12091CA033091CB0367
:10015000809104019091050102972817390714F145
:100160002931310579F060E080E00E9462078091DA
:10017000CA030E9489010E94A605109203011092F1
:10018000020108950E94A60581E090E00E94B70652
:1001900089E793E00E94A40682E090E09093CD036B
:1001A0008093CC0308950E948101082E000C990BC6
:1001B0009093CB038093CA0380E090E00E94B7063F
:1001C000E091CA03F091CB03EE0FFF1FEA5FFE4FF1
:1001D000808191810E94A40661E080E00E94620714
:1001E0008091CA039091CB0303969093050180936D
:1001F000040181E090E0909303018093020108954F
:1002000084E00E94CC03882329F183E090E090935E
:100210000501809304011092CB031092CA0381E080
:1002200090E09093CD038093CC030E94A60580E0DC
:1002300090E00E94B706E091CA03F091CB03EE0F65
:10024000FF1FEA5FFE4F808191810E94A40683E533
:100250000E9489010E947F018823A1F00E948101F0
:10026000833581F40E94A60560E080E00E94620769
:1002700081E090E09093CD038093CC031092030132
:1002800010920201089580910001909101011816C9
:10029000190634F4019790930101809300010895A9
:1002A0000E94A6058FE793E00E94A40682E090E0FA
:1002B0009093CD038093CC03089583E090E09093D6
:1002C0000101809300019093050180930401109235
:1002D000CB031092CA0381E090E09093CD0380930A
:1002E000CC030E94A605E091CA03F091CB03EE0F68
:1002F000FF1FEA5FFE4F808191810C94A4060C944D
:10030000B6020C94D7020C94BC020C94C2020C945A
:10031000C8020E94C8020E94C2028823E1F38CE254
:1003200091E00197F1F70E94B60281110C948101CE
:1003300008950C94DE02CF93DF9300D00F92CDB7D7
:10034000DEB780914F0390915003A09151038983B0
:100350009A83AB83509A589A0E948C028FE690E061
:100360000E94240281E090E00E947B0261E070E044
:1003700081E090E00E9468020E945402CE01019642
:100380000E949E020F900F900F90DF91CF910895E1
:10039000CF93DF93EC01D901FB0120E030E080E056
:1003A00061E070E0841304C02C93DF91CF91089535
:1003B00091919B01092E02C0220F331F0A94E2F78C
:1003C0002F5F3F4F369527952C0F3D1F02C0369566
:1003D00027959A95E2F72F3F310531F328F38F5F88
:1003E000E1CFE1E6F0E080E880831082A89584B751
:1003F000877F84BFE0E6F0E080818861808310829F
:1004000008951092800084E080938100109285000E
:100410001092840008958091840090918500089541
:100420009C018091840090918500AC01421B530B8C
:10043000483E5340B0F708952091840030918500E4
:10044000820F931F0C941002CF93DF930F92CDB7BE
:10045000DEB79E012F5F3F4F45E062E573E00E94EB
:10046000C801E82F81E08E0F80933C018981815083
:1004700087BD18BC85B58770882339F095B5809104
:100480003C018770987F892B85BD898190E0F0E0E1
:10049000EE5AFC4F208102C0880F991F2A95E2F77F
:1004A0000F90DF91CF91089585B3897F85BB95B576
:1004B00080913C018770987F892B85BD089585B513
:1004C000887F85BD089585B382FB882780F90895CC
:1004D000009719F0019751F0089584B58F736295D4
:1004E000660F660F607C682B64BD089584B56295C5
:1004F00060738F7CF8CF009721F0019739F080E08E
:10050000089584B58C7F84BD81E0089584B58E7F85
:1005100084BD84B58260F7CF14BC15BC16BC18BC72
:1005200081E090E00E947B0281E008959C010197A8
:100530009093CD0021502093CC000895CF93DF936A
:10054000EC01888199810E9496028A819BEF980F25
:10055000943008F088E098E19093C9008550880FA6
:100560008093CA0081E0DF91CF9108958091C80007
:10057000881F8827881F08958091C80085FB8827D9
:1005800080F908958091C80086FB882780F9089536
:10059000CF93C82F0E94BC028823E1F38091C8004A
:1005A00080648093C800C093CE00CF91089580915D
:1005B000C80087FFFCCF8091CE000895CF93DF93D2
:1005C000EC018991811103C0DF91CF9108950E94C0
:1005D000C802F7CF8530B8F46730A8F421E030E0E6
:1005E000F90102C0EE0FFF1F6A95E2F7BF01E82F85
:1005F000F0E0E153FC4F862F80959081892341954F
:100600004623842B80830895853088F4673078F4FE
:10061000E82FF0E0E153FC4F81E090E001C0880F4B
:100620006A95EAF79081982381E0911101C080E0FA
:1006300008956091CE03E62FF0E0E153FC4F8081F6
:100640000E9463038091CE038F5F853008F080E0C5
:100650008093CE030895EFECF3E0108211821282B2
:100660001382148208950E9441030C942B039C0171
:10067000FC01FF2784A1832B84A385A1832B85A361
:100680000895CF93DF93C1E6D3E0899199910E94B9
:10069000370383E0CF36D807C1F783E090E40E94A8
:1006A000370380E090E80E94370383E090E10E94E6
:1006B000370383E090E80E94370383E090E2DF9104
:1006C000CF910C943703E091D403F0E0EE0FFF1FBD
:1006D000E95AFC4F20813181F901FF2795A1932B25
:1006E00095A3A1E6B3E04FE653E02D913D91F901CA
:1006F000FF2780FF1BC025A1932F9095922395A3E0
:1007000086954A175B0789F7E62FF0E0EE0FFF1F8B
:10071000E95AFC4F80819181FC01FF2725A1892F97
:100720008095822385A36093D403089595A1932B8C
:10073000E6CF9C016330710561F038F461307105DA
:10074000D9F06230710509F108956430710561F0E6
:100750000895F901FF2784A1832B84A395A1832FFA
:100760008095892385A30895F901FF2784A1832B10
:1007700084A385A1832BF6CFF901FF2794A1832FB2
:100780008095982394A395A1ECCFF901FF2794A11C
:10079000832F80958923ECCFE82FF0E0EE0FFF1F29
:1007A000EB52FC4F8081882329F0818191E08927D9
:1007B0008170089580E090E0FBCFE82FF0E0EE0F2D
:1007C000FF1FEB52FC4F8081811103C0818181703A
:1007D000089580E090E0FBCFE82FF0E0EE0FFF1FE0
:1007E000EB52FC4F80810895E82FF0E0EE0FFF1FE1
:1007F000EB52FC4F808191E0892708958F929F9260
:10080000AF92BF92CF92DF92EF92FF920F931F931E
:10081000CF93DF9300D00F92CDB7DEB785ED93E095
:100820009B838A839FE6C92E93E0D92E26E0922EE1
:10083000EA81FB8180818183F601019111916F0131
:100840005801BB24F50124A1E12EFF2485A190E0ED
:100850008E219F2130E02E213F21232B09F43DC022
:10086000892B09F43FC0F4E0F983812C64E070E047
:10087000C8010E94990362E070E0C8010E949903D8
:10088000892D8A95F1F7F50183A190E08E219F21B2
:1008900021E0892B09F020E0EA81FB812083698136
:1008A000782DC8010E9499038A819B8102969B83BF
:1008B0008A838F5D934009F0BBCF0F900F900F900C
:1008C000DF91CF911F910F91FF90EF90DF90CF902C
:1008D000BF90AF909F908F900895892B31F421E0C5
:1008E0002983C3CF83E08983C0CF92E09983BDCFB2
:1008F0000895FC01892B59F08381681B67FD04C0B2
:1009000081E09481691708F080E08170089580E0AB
:100910000895FC01A62F622F892B51F18181481780
:1009200038F59281291720F59381A91BA7FD20C0D6
:10093000B0E0248130E0A217B307D4F40E94C907C5
:10094000480F858190E0BD010E94D207242F269593
:1009500026952695E80FF91FE20FF11D868190E09C
:10096000477002C0959587954A95E2F78170089582
:1009700080E00895CF93DF93EC010E9401029E0175
:1009800040E050E062E17AE780E090E00E940B08EE
:100990003093E2032093E103DF91CF91089580919A
:1009A000DF039091E0030E9410028091DF03909199
:1009B000E0032091E1033091E203820F931F9093B3
:1009C000E0038093DF030895692F0C94040341E052
:1009D000611101C040E0692F0C94EA020C94E70415
:1009E0005F926F927F928F929F92AF92BF92CF92BF
:1009F000DF92EF92FF920F931F93CF93DF93862E98
:100A0000772E942E682E592EB62EA72E062E000C69
:100A1000770BE82F082E000CFF0B8B010E1B1F0B12
:100A2000272D072C000C330B492F092E000C550BDA
:100A3000E901C41BD50B17FF59C0DD24DA94D7FD9B
:100A400002C0DD24D3948F01061B170BCC24CA945B
:100A5000D7FF03C0EA01C21BD30B0C171D076CF1B3
:100A6000780117FF03C08FEFE81AF80AF594E794AE
:100A7000A92E681014C0692D8B2D9A2DDF91CF916E
:100A80001F910F91FF90EF90DF90CF90BF90AF90AC
:100A90009F908F907F906F905F900C94E704692DEA
:100AA000862D9A2D0E94E704EC1AFD0AF7FE03C07A
:100AB000E00EF11EAD0C6C0CDCCF7E01D7FF03C045
:100AC0009FEFE91AF90AF594E794B82E571499F2B2
:100AD000692D8B2D952D0E94E704E01AF10AF7FE8F
:100AE00003C0EC0EFD1EBC0C5D0CF0CFCC24C394F7
:100AF000DD24DA94D7FDAECFDD24D394AECFFF92C0
:100B00000F931F93CF93DF93D82FF92E162FC72F54
:100B1000042F792F0E94F004402F6D2F7C2F8D2FF2
:100B20009F2D0E94F004402F612F7C2F812F9F2D3D
:100B30000E94F004402F612F7C2F8D2F9C2FDF917E
:100B4000CF911F910F91FF900C94F0040E942B0302
:100B5000EDE3F1E0118A14860895DF92EF92FF929F
:100B60000F931F93CF93DF93D82E7B01C62F0F2DAA
:100B700080913F0190914001D0E0019751F1CE2D3D
:100B8000CD0FE0914501F09146018181D81708F41D
:100B90005CC0D0E0E0914501F09146018281D81718
:100BA00008F455C0CF5F27C0212F4D2F6D2D0E9417
:100BB0008904682F8E2D810F902F0E94E7041F5FFC
:100BC0008091450190914601FC012281121760F34A
:100BD000DF5F0F2D0D1BE0914501F09146018181F2
:100BE000D81798F0D0E0E0914501F091460182815C
:100BF000D81768F001508C2F902FDF91CF911F9163
:100C00000F91FF90EF90DF90089510E0D9CF60E052
:100C10008E2D8D0F902F0E94E704DF5FE4CF212FF0
:100C20004D2F6D2D0E948904682F8C2F9F2D910FC1
:100C30000E94E7041F5F8091450190914601FC01ED
:100C40002281121760F3DF5F9ACF10E0F4CF60E0EB
:100C50008C2F9F2D9D0F0E94E704DF5F9BCF1F937A
:100C6000CF93DF93EC0110E08991882341F00E943B
:100C7000AD05BC011F5F853014F477FFF5CF812FE0
:100C8000DF91CF911F9108950F931F93CF93DF931F
:100C9000EC01362F272F1092490140934A01109200
:100CA0004D0100914501109146010115110509F40E
:100CB00046C0F8018181609143017091440190E048
:100CC0000E94D207BC0180914701909148010E9487
:100CD000E307CB016AE070E00E94D20790934C01D9
:100CE00080934B01309341012093420140E250E058
:100CF000BE018EE491E00E944C0880913D019091EC
:100D00003E010197E1F4FE0101900020E9F73197DF
:100D1000BF016C1B7D0BF80181818F5F0E94C907A9
:100D2000815020913F013091400197E02130310501
:100D300009F095E0981718F48EEF80934D01DF913C
:100D4000CF911F910F91089520913F013091400163
:100D500076E02130310509F070E04FEF60E00C944F
:100D6000440690E09093440180934301089590934A
:100D70003E0180933D0108959093400180933F018F
:100D80000895909346018093450108958091E3036F
:100D90009091E40301969093E4038093E303209100
:100DA0004B0130914C018217930708F442C0109216
:100DB000E4031092E303E0914901F0E0E35CFE4FAD
:100DC0008189811109C080914A01823090F181505E
:100DD00080934A01109249018091490190E0FC0101
:100DE000E35CFE4F2189222321F140913D01509186
:100DF0003E0120914D0141155105E9F04130510569
:100E000059F180914D018F5F80934D01082E000CA8
:100E1000990BE0914501F0914601218130E02817BE
:100E200039073CF410924D01809149018F5F809306
:100E300049010C9419032111E4CF60914101709193
:100E40004201825B9E4F0E942F0690914901915072
:100E5000980F90934901D5CF609141017091420163
:100E600040913F01509140014130510531F4720FE2
:100E7000825B9E4F0E942F06C4CF621BF9CFCF9397
:100E8000DF93CDE3D1E09B878A870E94330384E11F
:100E900090E09F838E83DF91CF910C94A6059B01F8
:100EA00066E070E00E94D207820F931F089566E00B
:100EB00070E00E94F707CB01089566E070E00E94A1
:100EC000F7070895811105C0662311F0429A08952D
:100ED000429808953A9A429A08950E94F1010E9418
:100EE00078040E949B010E946A0786E292E00E94B9
:100EF000BA0486E292E00E943F078EE691E00E94EB
:100F0000C1068AE00E94B10681E090E00E94B70627
:100F100089E893E00E94A4060E94CF040E94C606BE
:100F20000E94FE030E9419038091CC039091CD038F
:100F30008130910539F018F00297E9F0EDCF0E9469
:100F40000001EACF80E00E94CC0381110E94590089
:100F500082E00E94CC0381110E947C0084E00E9408
:100F6000CC0381110E949E000E947F018823A1F280
:100F70000E94D300D1CF84E00E94CC03882361F289
:100F80000E94430180E090E00E94B7060E945D014C
:100F9000C3CF002480FD060E660F11F08695D1F7B1
:100FA000802D08950024552704C0080E591F880F6E
:100FB000991F009729F076956795B8F37105B9F7F1
:100FC000802D952F0895AA1BBB1B51E107C0AA1FB6
:100FD000BB1FA617B70710F0A61BB70B881F991FDA
:100FE0005A95A9F780959095BC01CD01089597FB7E
:100FF000072E16F4009407D077FD09D00E94E3076E
:1010000007FC05D03EF4909581959F4F089570950B
:1010100061957F4F0895052E97FB1EF400940E9462
:10102000220857FD07D00E942A0807FC03D04EF47F
:101030000C94220850954095309521953F4F4F4F85
:101040005F4F089590958095709561957F4F8F4F74
:101050009F4F0895A1E21A2EAA1BBB1BFD010DC0D4
:10106000AA1FBB1FEE1FFF1FA217B307E407F50758
:1010700020F0A21BB30BE40BF50B661F771F881F34
:10108000991F1A9469F760957095809590959B01CA
:10109000AC01BD01CF010895FB01DC01415050407E
:1010A00048F001900D920020C9F701C01D924150F7
:0A10B0005040E0F70895F894FFCFD8
:1010BA0003000100030098039A039C039E03A00304
:1010CA00A203A403A603A803AA03AC03AE03B003B6
:1010DA00B203B403B603B8037D03BA039603BC0391
:1010EA00BE03C003C203C403C603C8030100000051
:1010FA0000000014000000000000000000000000D2
:10110A0000000000000000000000000000000000D5
:10111A0000000000000000000000000000000105BF
:10112A0007205F050000000000C6186380014A29F5
:10113A000000004A7DF59502C417471F0163222269
:10114A0032062615519305860800000088082108F2
:10115A00028220848800805457090080904F08003A
:10116A00000060880000800F00000000008C010071
:10117A00222202002EE63AA303C4104288032E421A
:10118A0044C4072E4207A30388A9F411023F840727
:10119A00A3032E8617A3033F424408012E4617A332
:1011AA00032E460FA303C018600C00C01860880005
:1011BA008888200802007CF0010082208888002E9E
:1011CA00424400012E425BAB0344C51F63042FC691
:1011DA0017E3032E8610A2032FC618E3033F8417D2
:1011EA00C2073F841742002E861EA30731C61F631B
:1011FA00048E10428803104218A3033195515204F9
:10120A00218410C20771D71A630471D61C63042E95
:10121A00C618A3032FC61742002EC65893052FC619
:10122A001763042E0607A3039F1042080131C6184C
:10123A00A30331C618150131C65AAB02312AA2627C
:10124A0004312A4208011F2222C207278410C20140
:10125A0020088220000E21849003444500000000EB
:10126A000000C00782200000000038E8A30721B46C
:10127A0019E30300B810A20310DA1CA30700B8F898
:10128A0083034C8A238400C0C7E8A10321B41963ED
:10129A00040418428803083084920121A4324A02C5
:1012AA00861042880300AC5A630400B41963040030
:1012BA00B818A30300BCF8420000D8EC210400B41B
:1012CA0019420000B8E0E003421C21240300C418BC
:1012DA00B30500C418150100C45AAB0200444554B2
:1012EA000400C4E8A103007C44C407881041080232
:1012FA008410420801821044880000888A0000D0C5
:10130A000008000306080A03400080031003800354
:10131A002000400020001000080004000200010321
:10132A008003400320008003104C4F53455200476E
:10133A00616D65204F7665720050524553532054B3
:10134A004F2053544152540041004200430044008C
:10135A00450046004700480049004A004B004C003F
:10136A004D004E004F0050005100530055005600EA
:0A137A005700580059005A003000D7
:00000001FF
