:100000000C943A000C9457000C9457000C94570031
:100010000C9457000C9457000C9457000C94570004
:100020000C9457000C9457000C9457000C945700F4
:100030000C9457000C9457000C9457000C945700E4
:100040000C9457000C9457000C9457000C945700D4
:100050000C9457000C9457000C9457000C945700C4
:100060000C9457000C9457000C9457000C945700B4
:100070000C94570011241FBECFEFD4E0DEBFCDBFDC
:1000800013E0A0E0B1E0E0E3F7E102C005900D92DB
:10009000AE3DB107D9F723E0AEEDB3E001C01D924C
:1000A000AB3FB207E1F70E9488070C94960B0C94C3
:1000B00000008091E0039091E103209104013091D0
:1000C000050182179307BCF42091020130910301CE
:1000D000232B89F08931910574F401969093E10303
:1000E0008093E003880F991FFC01EA5FFE4F808137
:1000F00091810C94BA0608958091020190910301B8
:10010000892BD9F08091E0039091E10320910401C3
:1001100030910501215031098217930774F001973E
:100120009093E1038093E003880F991FFC01EA5F3D
:10013000FE4F808191810C94BA060895809102014E
:1001400090910301892B71F12091E0033091E1033B
:10015000809104019091050102972817390714F145
:100160002931310579F060E080E00E947D078091BF
:10017000E0030E94B4010E94BE0510920301109298
:10018000020108950E94BE0581E090E00E94CF0622
:1001900089E793E00E94BA0682E090E09093E3033F
:1001A0008093E20308950E94AC01082E000C990B85
:1001B0009093E1038093E00380E090E00E94CF06FB
:1001C000E091E003F091E103EE0FFF1FEA5FFE4FC5
:1001D000808191810E94BA0661E080E00E947D07E3
:1001E0008091E0039091E103039690930501809341
:1001F000040181E090E0909303018093020108954F
:1002000084E00E94FB03882329F183E090E090932F
:100210000501809304011092E1031092E00381E054
:1002200090E09093E3038093E2030E94BE0580E098
:1002300090E00E94CF06E091E003F091E103EE0F21
:10024000FF1FEA5FFE4F808191810E94BA0683E51D
:100250000E94B4010E94AA018823A1F00E94AC016F
:10026000833581F40E94BE0560E080E00E947D0736
:1002700081E090E09093E3038093E2031092030106
:1002800010920201089580910001909101011816C9
:10029000190634F4019790930101809300010895A9
:1002A00081E090E09093DF038093DE0308950F9345
:1002B0001F93CF93DF93CDB7DEB7A3970FB6F89414
:1002C000DEBF0FBECDBF9F938F938FE793E09F93C9
:1002D0008F938E010F5F1F4F1F930F930E94A708EC
:1002E00080E090E00E94CF06C8010E94BA060F90FD
:1002F0000F900F900F900F900F90A3960FB6F89459
:10030000DEBF0FBECDBFDF91CF911F910F9108953A
:1003100083E090E0909301018093000190930501A8
:10032000809304011092E1031092E00381E090E0D9
:100330009093E3038093E2030E94BE05E091E00303
:10034000F091E103EE0FFF1FEA5FFE4F8081918184
:100350000C94BA060C94E5020C9406030C94EB0280
:100360000C94F1020C94F7020E94F7020E94F10231
:100370008823E1F38CE291E00197F1F70E94E50216
:1003800081110C94AC0108950C940D03CF93DF936D
:1003900000D01F92CDB7DEB780914F0390915003EC
:1003A000A091510389839A83AB83509A589A0E94F3
:1003B000B8028FE690E00E944F0281E090E00E9438
:1003C000A70261E070E081E090E00E9493020E9449
:1003D0007F02CE0101960E94CD020F900F900F90E8
:1003E000DF91CF910895CF93DF93DC01FB0160E0B3
:1003F00070E080E0C1E0D0E08417C9F09191BE01C7
:10040000092E02C0660F771F0A94E2F76F5F7F4FD5
:10041000769567956A0F7B1F02C0769567959A95CA
:10042000E2F76F3F710519F010F08F5FE5CFF9012A
:100430006083DF91CF910895E1E6F0E080E880836A
:100440001082A89584B7877F84BFE0E6F0E08081C2
:1004500088618083108208951092800084E08093E8
:10046000810010928500109284000895809184008C
:10047000909185000895AC01809184009091850051
:100480009C01241B350B283E3340B0F70895209182
:10049000840030918500820F931F0C943B02CF9310
:1004A000DF931F92CDB7DEB79E012F5F3F4F45E030
:1004B00062E573E00E94F30191E0980F90933C0194
:1004C0009981915097BD18BC95B5977039F095B545
:1004D00020913C012770987F922B95BD298130E0B7
:1004E000E82FF0E0EE5AFC4FC901008002C0880FEF
:1004F000991F0A94E2F70F90DF91CF91089585B389
:10050000897F85BB85B590913C019770887F892B49
:1005100085BD089585B5887F85BD089585B382FB27
:10052000882780F90895009719F0019741F0089500
:1005300084B58F736295660F660F607C05C084B5C5
:1005400063706295607F8F7C682B64BD089500970F
:1005500041F0019759F484B58E7F84BD84B58260E3
:1005600002C084B58C7F84BD81E0089580E0089549
:1005700014BC15BC16BC18BC84B58E7F84BD84B574
:10058000826084BD81E008959C012150310930933F
:10059000CD0081508093CC000895CF93DF93EC0180
:1005A000888199810E94C4028A819BEF980F9430C0
:1005B00008F088E098E19093C9008550880F8093F7
:1005C000CA0081E0DF91CF9108958091C800881F13
:1005D0008827881F08958091C80085FB882780F9A7
:1005E00008958091C80086FB882780F90895CF93ED
:1005F000C82F0E94EB028823E1F38091C800806439
:100600008093C800C093CE00CF9108958091C80018
:1006100087FFFCCF8091CE000895CF93DF93EC014C
:100620008991882319F00E94F702FACFDF91CF91C8
:100630000895853098F4673088F421E030E001C0F7
:10064000220F6A95EAF7E82FF0E0EB51FC4F922F6A
:100650009095808189234111822B80830895853074
:1006600080F4673070F421E030E001C0220F6A9519
:10067000EAF7E82FF0E0EB51FC4F8081282381E07E
:1006800009F480E008956091E403E62FF0E0EB5177
:10069000FC4F80810E9491038091E4038F5F85303D
:1006A00018F48093E40308951092E4030895E5EEAE
:1006B000F3E01082118212821382148208950E9444
:1006C0006F030C9457039C01FC01FF2784A1832B2B
:1006D00084A395A1892F832B85A381E00895CF93CF
:1006E000DF93C1E6D3E0899199910E94630383E08F
:1006F000CF36D807C1F783E090E40E94630380E01F
:1007000090E80E94630383E090E10E94630383E02A
:1007100090E80E94630383E090E2DF91CF910C9414
:100720006303E091EA03F0E0EE0FFF1FE95AFC4F8C
:1007300020813181F901FF2795A1932B95A3E1E653
:10074000F3E097E020813181D901BB2795962C9168
:10075000959780FF03C03095232301C0232B9596E6
:100760002C938695915032969111ECCFE62FF0E0C4
:10077000EE0FFF1FE95AFC4F80819181FC01FF279A
:1007800085A19095892385A36093EA03089562303B
:10079000710519F170F46130710559F5FC01FF27FD
:1007A00024A1392F3095922F932394A385A18323DD
:1007B0001DC06330710541F064307105D1F4FC0156
:1007C000FF2784A1892B0FC0FC01FF2784A1892B5F
:1007D00084A385A19095892309C0FC01FF2784A1EA
:1007E000292F2095822384A385A1892B85A381E0CD
:1007F000089580E00895E82FF0E0EE0FFF1FE55127
:10080000FC4F8081882321F0918181E0892702C0FB
:1008100080E090E081700895E82FF0E0EE0FFF1F78
:10082000E551FC4F8081811102C0818102C080E0CE
:1008300090E081700895E82FF0E0EE0FFF1FE55182
:10084000FC4F80810895E82FF0E0EE0FFF1FE55187
:10085000FC4F908181E0892708957F928F929F922B
:10086000AF92BF92CF92DF92EF92FF920F931F93BE
:10087000CF93DF93CBEED3E05FE6C52E53E0D52ECA
:1008800066E0762E88818983F601019111916F01CE
:100890005801BB24F50124A1E12EFF2485A190E09D
:1008A0008E219F2130E02E213F21232B31F0892BF7
:1008B00051F433E0832E912C0DC0892B41F4882410
:1008C0008394912C07C094E0892E912C03C082E080
:1008D000882E912C64E070E0C8010E94C70362E09A
:1008E00070E0C8010E94C703872D8A95F1F7F501D2
:1008F00083A190E0E822F92281E0EF2809F080E06E
:100900008883B401C8010E94C7032296F3E0C53F63
:10091000DF0709F0B7CFDF91CF911F910F91FF90C3
:10092000EF90DF90CF90BF90AF909F908F907F908F
:1009300008950895009789F0FC012381621B67FDEB
:1009400009C0062E000C770B248130E081E062178D
:1009500073070CF080E08170089580E00895CF93D4
:10096000DF93FC01892B79F18181481760F5928131
:10097000291748F59381A62FA91BA7FD24C00A2E8D
:10098000000CBB0BC481D0E0AC17BD07E4F4622FB0
:100990000E941508480F858190E0BD010E941E0845
:1009A0000696242F269526952695E80FF91FE20F27
:1009B000F11D808190E0477002C0959587954A951A
:1009C000E2F7817001C080E0DF91CF910895CF936D
:1009D000DF93EC010E942C029E0140E050E062E1B6
:1009E0007AE780E090E00E9457083093F803209364
:1009F000F703DF91CF9108958091F5039091F6036D
:100A00000E943B022091F5033091F6038091F70399
:100A10009091F803820F931F9093F6038093F50350
:100A20000895692F0C942F0341E0611101C040E04B
:100A3000692F0C9419030C9414055F926F927F92A6
:100A40008F929F92AF92BF92CF92DF92EF92FF92DE
:100A50000F931F93CF93DF93562E872E942E5C0116
:100A6000E62EF72EC62F660FDD0BC81BD10987FDBA
:100A7000D395072F770F110B091B110997FD1395BC
:100A8000D7FF03C077247A9402C07724739417FFAA
:100A900003C066246A9402C066246394D7FF03C02F
:100AA000D195C195D10917FF03C011950195110981
:100AB000C017D107A4F06E01D594C794F92EA514E0
:100AC00011F1692D8A2D9F2D0E941405C01AD10A9B
:100AD000D7FE03C0CC0EDD1EF60CA70CF0CF6801CC
:100AE000D594C794E82EB81471F0692D8E2D9B2DE6
:100AF0000E941405CC1ADD0AD7FE03C0C00ED11E19
:100B0000E70CB60CF0CF692DC701DF91CF911F9193
:100B10000F91FF90EF90DF90CF90BF90AF909F909C
:100B20008F907F906F905F900C941405FF920F93BD
:100B30001F93CF93DF93D82FF92E162FC72F042F93
:100B4000792F0E941D05402F6D2F7C2F8D2F9F2DFB
:100B50000E941D05402F612F7C2F812F9F2D0E9409
:100B60001D05402F612F7C2F8D2F9C2F0E941D056E
:100B7000DF91CF911F910F91FF9008950E9457032D
:100B8000EDE3F1E0118A14860895DF92EF92FF926F
:100B90000F931F93CF93DF93D82E7B01162F0F2D2A
:100BA00080913F0190914001D0E0019799F50F2D80
:100BB0000D1BE0914501F09146018181C0E0D817FD
:100BC000B8F48091450190914601FC012281C21741
:100BD00068F42C2F4D2F6D2D0E94AF04682F8E2DA1
:100BE0008C0F902F0E941405CF5FEBCFDF5FDFCF1C
:100BF000E0914501F09146018281C81740F460E020
:100C00008E2D8C0F902F0E941405CF5FF1CF0150D5
:100C100030C0DF5F1E2D1D0FE0914501F0914601B0
:100C20008181C0E0D817A8F48091450190914601D8
:100C3000FC012281C21768F72C2F4D2F6D2D0E94C9
:100C4000AF04682F812F9F2D9C0F0E941405CF5F4A
:100C5000EBCFE0914501F09146018281C81740F445
:100C600060E0812F9F2D9C0F0E941405CF5FF1CF74
:100C70001F5F812F902FDF91CF911F910F91FF90D8
:100C8000EF90DF9008950F931F93CF938C01C0E0F6
:100C9000F80181918F01882341F00E94C505BC01B4
:100CA000CF5F853014F477FFF3CF8C2FCF911F9156
:100CB0000F9108950F931F93CF93DF9310924901E3
:100CC00040934A0110924D01009145011091460157
:100CD0000115110509F449C09B01EC01F80181815E
:100CE000609143017091440190E00E941E08BC0194
:100CF00080914701909148010E942F08CB016AE042
:100D000070E00E941E0890934C0180934B01309339
:100D100042012093410140E250E0BE018EE491E0A7
:100D20000E94980880913D0190913E010197E9F45D
:100D3000FE0101900020E9F73197BF016C1B7D0B8C
:100D4000F80181818F5F0E941508815020913F0139
:100D5000309140012130310511F095E001C097E05C
:100D6000981718F48EEF80934D01DF91CF911F916A
:100D70000F91089520913F013091400121303105BC
:100D800011F070E001C076E04FEF60E00E945A067B
:100D9000089590E0909344018093430108959093C7
:100DA0003E0180933D0108959093400180933F015F
:100DB0000895909346018093450108958091F90329
:100DC0009091FA0301969093FA038093F90320918E
:100DD0004B0130914C018217930708F469C01092BF
:100DE000FA031092F903E0914901F0E0E35CFE4F51
:100DF000818981110AC080914A01823008F458C06B
:100E0000815080934A01109249018091490190E0FC
:100E1000FC01E35CFE4F2189222309F449C0409183
:100E20003D0150913E0120914D014115510521F0A8
:100E30004130510599F024C0211122C06091410137
:100E400070914201825B9E4F0E94430690E00197A1
:100E500090914901890F8093490112C0609141012D
:100E60007091420140913F01509140014130510544
:100E700011F4720F01C0621B825B9E4F0E944306F9
:100E800080914D018F5F80934D01082E000C990BCE
:100E9000E0914501F0914601218130E028173907A2
:100EA0003CF410924D01809149018F5F809349017C
:100EB0000C944303CF93DF93CDE3D1E09B878A87E4
:100EC0000E945F0384E190E09F838E83DF91CF9146
:100ED0000C94BE059B0166E070E00E941E08820F24
:100EE000931F089566E070E00E944308CB010895C7
:100EF00066E070E00E9443080895811105C06623F2
:100F000011F0429A0895429808953A9A429A0895A3
:100F1000CF93DF93CDB7DEB764970FB6F894DEBFFB
:100F20000FBECDBF0E941C020E9499040E94C60100
:100F30000E94850786E292E00E94E70486E292E042
:100F40000E945A078EE691E00E94D9068AE00E942C
:100F5000C90681E090E00E94CF0689E893E00E94F4
:100F6000BA0688E9E82E83E0F82E8E010F5F1F4F46
:100F700093E0C92ED12C0E94FC040E94DE060E9440
:100F80002D040E9443038091E2039091E30381309A
:100F9000910539F018F00297E9F0EDCF0E940001B9
:100FA000EACF80E00E94FB0381110E94590082E099
:100FB0000E94FB0381110E947C0084E00E94FB03DD
:100FC00081110E949E000E94AA018823A1F20E9422
:100FD000D300D1CF84E00E94FB03882349F0D09254
:100FE0000101C09200011092E3031092E203C3CF0B
:100FF00081E090E00E94CF068AE00E94C9068091BD
:1010000001018F93809100018F93FF92EF921F93C4
:101010000F930E94A708C8010E94BA060F900F9074
:101020000F900F900F900F90A6CF002480FD060E1A
:10103000660F11F08695D1F7802D0895002455276D
:1010400004C0080E591F880F991F009729F0769544
:101050006795B8F37105B9F7802D952F0895AA1BF0
:10106000BB1B51E107C0AA1FBB1FA617B70710F093
:10107000A61BB70B881F991F5A95A9F780959095C5
:10108000BC01CD01089597FB072E16F4009407D0FC
:1010900077FD09D00E942F0807FC05D03EF49095FB
:1010A00081959F4F0895709561957F4F0895052E06
:1010B00097FB1EF400940E946E0857FD07D00E9413
:1010C000760807FC03D04EF40C946E0850954095BA
:1010D000309521953F4F4F4F5F4F089590958095E4
:1010E000709561957F4F8F4F9F4F0895A1E21A2E03
:1010F000AA1BBB1BFD010DC0AA1FBB1FEE1FFF1FBC
:10110000A217B307E407F50720F0A21BB30BE40B0B
:10111000F50B661F771F881F991F1A9469F7609552
:101120007095809590959B01AC01BD01CF0108950C
:10113000FB01DC014150504048F001900D9200202D
:10114000C9F701C01D9241505040E0F70895AEE04C
:10115000B0E0EDEAF8E00C946D0B0D891E8986E095
:101160008C831A8309838FEF9FE79E838D83AE0163
:10117000475E5F4F6F89788DCE0101960E94C90846
:10118000EF81F885E00FF11F10822E96E4E00C94B9
:10119000890BABE0B0E0EFECF8E00C945F0B6C0176
:1011A0007B018A01FC0117821682838181FFCFC1F6
:1011B000CE0101963C01F6019381F70193FD8591E3
:1011C00093FF81917F01882309F4BDC1853239F4F1
:1011D00093FD859193FF81917F01853229F4B601BA
:1011E00090E00E94C30AE7CF912C212C312CFFE123
:1011F000F315E0F08B3279F038F4803279F08332F5
:10120000A9F4232D206110C08D3259F0803371F480
:10121000232D216009C0832D8260382EE32DE460E8
:1012200024C0F32DF86027C0322E29C037FC2FC010
:1012300020ED280F2A3098F436FE07C0892D6AE089
:101240000E941508922E980E1AC0822D6AE00E9404
:101250001508222E280E832D8062382E10C08E3263
:1012600031F436FC70C1E32DE0643E2E08C08C36AC
:1012700021F4F32DF0683F2E02C0883641F4F701C7
:1012800093FD859193FF81917F018111B0CF982FBC
:101290009F7D9554933028F40C5F1F4F2FE32983D3
:1012A0000DC0833631F0833771F0833509F059C0B2
:1012B00021C0F801808189830E5F1F4F88248394A9
:1012C000912C530113C02801F2E04F0E511CF8017C
:1012D000A080B18036FE03C0692D70E002C06FEFC0
:1012E0007FEFC5010E94B80A4C018201F32DFF7700
:1012F0003F2E16C0280122E0420E511CF801A080AA
:10130000B18036FE03C0692D70E002C06FEF7FEF41
:10131000C5010E94AD0A4C01F32DF0683F2E8201F9
:1013200033FC1BC0822D90E088169906B0F4B601FC
:1013300080E290E00E94C30A2A94F4CFF50137FCC2
:10134000859137FE81915F01B60190E00E94C30A4A
:1013500021102A9421E0821A91088114910471F7D6
:10136000E8C0843611F0893641F5F80137FE07C030
:1013700060817181828193810C5F1F4F08C0608101
:101380007181072E000C880B990B0E5F1F4FF32DF8
:10139000FF763F2E97FF09C09095809570956195D7
:1013A0007F4F8F4F9F4FF0683F2E2AE030E0A30120
:1013B0000E94FF0A882E861845C0853731F4232DF8
:1013C0002F7EB22E2AE030E025C0932D997FB92ED2
:1013D0008F36C1F018F4883579F0B5C0803719F030
:1013E000883721F0B0C0E92FE061BE2EB4FE0DC0F9
:1013F000FB2DF460BF2E09C034FE0AC0292F2660E1
:10140000B22E06C028E030E005C020E130E002C086
:1014100020E132E0F801B7FE07C06081718182816E
:1014200093810C5F1F4F06C06081718180E090E066
:101430000E5F1F4FA3010E94FF0A882E8618FB2D06
:10144000FF773F2E36FE0DC0232D2E7FA22E89144E
:1014500058F434FE0BC032FC09C0832D8E7EA82EBA
:1014600005C0B82CA32C03C0B82C01C0B92CA4FE15
:101470000FC0FE01E80DF11D8081803321F49A2D0B
:10148000997EA92E09C0A2FE06C0B394B39404C0ED
:101490008A2D867809F0B394A3FC11C0A0FE06C083
:1014A000B21488F4280C922C9B180EC0B21460F46D
:1014B000B60180E290E00E94C30AB394F7CFB21461
:1014C00018F42B1802C0982C212CA4FE10C0B601D1
:1014D00080E390E00E94C30AA2FE17C0A1FC03C0F3
:1014E00088E790E002C088E590E0B6010CC08A2D44
:1014F000867859F0A1FE02C08BE201C080E2A7FC11
:101500008DE2B60190E00E94C30A891438F4B60156
:1015100080E390E00E94C30A9A94F7CF8A94F30183
:10152000E80DF11D8081B60190E00E94C30A811090
:10153000F5CF222009F43FCEB60180E290E00E9470
:10154000C30A2A94F6CFF6018681978102C08FEFF5
:101550009FEF2B96E2E10C947B0BFC010590615010
:1015600070400110D8F7809590958E0F9F1F0895B9
:10157000FC016150704001900110D8F78095909562
:101580008E0F9F1F08950F931F93CF93DF93FB013F
:10159000238121FD03C08FEF9FEF2CC022FF16C0D7
:1015A00046815781248135814217530744F4A08135
:1015B000B1819D012F5F3F4F318320838C93268122
:1015C00037812F5F3F4F3783268314C08B01EC0197
:1015D000FB010084F185E02D0995892BE1F6D80106
:1015E00016968D919C911797019617969C938E93C2
:1015F0001697CE01DF91CF911F910F910895FA01B7
:10160000AA27283061F1203191F1E8946F936E7F21
:101610006E5F7F4F8F4F9F4FAF4FB1E040D0B4E030
:101620003ED0670F781F891F9A1FA11D680F791F71
:101630008A1F911DA11D6A0F711D811D911DA11D84
:1016400022D009F468943F91062E000C3019000C4A
:10165000000C3019305D3193CEF6CF010895462F3E
:101660004770405D4193B3E00FD0C9F7F6CF462FE6
:101670004F70405D4A3318F0495D31FD405241934F
:1016800002D0A9F7EACFB4E0A6959795879577950C
:101690006795BA95C9F700976105710508959B0193
:1016A000AC010A2E06945795479537952795BA951C
:1016B000C9F7620F731F841F951FA01D08952F92F5
:1016C0003F924F925F926F927F928F929F92AF92D2
:1016D000BF92CF92DF92EF92FF920F931F93CF931F
:1016E000DF93CDB7DEB7CA1BDB0B0FB6F894DEBFB6
:1016F0000FBECDBF09942A88398848885F846E84DC
:101700007D848C849B84AA84B984C884DF80EE8025
:10171000FD800C811B81AA81B981CE0FD11D0FB62E
:10172000F894DEBF0FBECDBFED010895F894FFCF52
:10173000030001000300AC03AE03B003B203B40323
:10174000B603B803BA03BC03BE03C003C203C40399
:10175000C603C803CA03CC037D03CE03AA03D00388
:10176000D203D403D603D803DA03DC03010000005C
:101770000000001400000000000000000000000055
:101780000000000000000000000000000000000059
:101790000000000000000000000000000000010543
:1017A00007205F050000000000C6186380014A2979
:1017B0000000004A7DF59502C417471F01632222ED
:1017C0003206261551930586080000008808210876
:1017D000028220848800805457090080904F0800BE
:1017E000000060880000800F00000000008C0100F5
:1017F000222202002EE63AA303C4104288032E429E
:1018000044C4072E4207A30388A9F411023F8407AA
:10181000A3032E8617A3033F424408012E4617A3B5
:10182000032E460FA303C018600C00C01860880088
:101830008888200802007CF0010082208888002E21
:10184000424400012E425BAB0344C51F63042FC614
:1018500017E3032E8610A2032FC618E3033F841755
:10186000C2073F841742002E861EA30731C61F639E
:10187000048E10428803104218A30331955152047C
:10188000218410C20771D71A630471D61C63042E19
:10189000C618A3032FC61742002EC65893052FC69D
:1018A0001763042E0607A3039F1042080131C618D0
:1018B000A30331C618150131C65AAB02312AA26200
:1018C00004312A4208011F2222C207278410C201C4
:1018D00020088220000E218490034445000000006F
:1018E0000000C00782200000000038E8A30721B4F0
:1018F00019E30300B810A20310DA1CA30700B8F81C
:1019000083034C8A238400C0C7E8A10321B4196370
:10191000040418428803083084920121A4324A0248
:10192000861042880300AC5A630400B419630400B3
:10193000B818A30300BCF8420000D8EC210400B49E
:1019400019420000B8E0E003421C21240300C4183F
:10195000B30500C418150100C45AAB020044455435
:101960000400C4E8A103007C44C4078810410802B5
:101970008410420801821044880000888A0000D048
:101980000008000306080A034000800310038003D8
:1019900020004000200010000800040002000103A5
:1019A0008003400320008003104C4F534552004CED
:1019B000697665733A20256400505245535320548C
:1019C0004F205354415254004C4F534552202564EC
:1019D000204C49564553204C454654004100420096
:1019E00043004400450046004700480049004A00C3
:1019F0004B004C004D004E004F0050005100530072
:0E1A0000550056005700580059005A0030009B
:00000001FF
