:100000000C943A000C9457000C9457000C94570031
:100010000C9457000C9457000C9457000C94570004
:100020000C9457000C9457000C9457000C945700F4
:100030000C9457000C9457000C9457000C945700E4
:100040000C9457000C9457000C9457000C945700D4
:100050000C9457000C9457000C9457000C945700C4
:100060000C9457000C9457000C9457000C945700B4
:100070000C94570011241FBECFEFD4E0DEBFCDBFDC
:1000800013E0A0E0B1E0EAEBFEE002C005900D92C3
:10009000A235B107D9F723E0A2E5B3E001C01D9274
:1000A000AB36B207E1F70E9478060C945B070C941C
:1000B00000000C9490010C94B1010C9496010C94E6
:1000C0009C010C94A2010E94A2010E949C01882321
:1000D000E1F38CE291E00197F1F70E949001811128
:1000E0000C945B0008950C94B801CF93DF9300D07B
:1000F0000F92CDB7DEB78091130390911403A091B6
:10010000150389839A83AB83509A589A0E9466019B
:100110008FE690E00E94FE0081E090E00E94550191
:1001200061E070E081E090E00E9442010E942E01B7
:10013000CE0101960E9478010F900F900F90DF91F1
:10014000CF910895CF93DF93EC01D901FB0120E01B
:1001500030E080E061E070E0841304C02C93DF9114
:10016000CF91089591919B01092E02C0220F331F58
:100170000A94E2F72F5F3F4F369527952C0F3D1FCE
:1001800002C0369527959A95E2F72F3F310531F356
:1001900028F38F5FE1CFE1E6F0E080E88083108212
:1001A000A89584B7877F84BFE0E6F0E0808188610E
:1001B0008083108208951092800084E080938100F3
:1001C000109285001092840008958091840090918F
:1001D000850008959C018091840090918500AC0178
:1001E000421B530B483E5340B0F7089520918400C2
:1001F00030918500820F931F0C94EA00CF93DF9318
:100200000F92CDB7DEB79E012F5F3F4F45E066E10D
:1002100073E00E94A200E82F81E08E0F809300011E
:100220008981815087BD18BC85B58770882339F0D6
:1002300095B5809100018770987F892B85BD898154
:1002400090E0F0E0EA5EFC4F208102C0880F991F29
:100250002A95E2F70F90DF91CF91089585B3897FBA
:1002600085BB95B5809100018770987F892B85BDEE
:10027000089585B5887F85BD089585B382FB88275D
:1002800080F90895009719F0019751F0089584B509
:100290008F736295660F660F607C682B64BD08954E
:1002A00084B5629560738F7CF8CF009721F0019739
:1002B00039F080E0089584B58C7F84BD81E0089595
:1002C00084B58E7F84BD84B58260F7CF14BC15BC25
:1002D00016BC18BC81E090E00E94550181E00895B1
:1002E0009C0101979093CD0021502093CC0008955C
:1002F000CF93DF93EC01888199810E9470018A81FC
:100300009BEF980F943008F088E098E19093C90033
:100310008550880F8093CA0081E0DF91CF910895C6
:100320008091C800881F8827881F08958091C80081
:1003300085FB882780F908958091C80086FB88276F
:1003400080F90895CF93C82F0E9496018823E1F386
:100350008091C80080648093C800C093CE00CF9184
:1003600008958091C80087FFFCCF8091CE0008954A
:10037000CF93DF93EC018991811103C0DF91CF917D
:1003800008950E94A201F7CF8530B8F46730A8F431
:1003900021E030E0F90102C0EE0FFF1F6A95E2F79D
:1003A000BF01E82FF0E0EB5AFC4F862F809590813B
:1003B000892341954623842B80830895853088F4D2
:1003C000673078F4E82FF0E0EB5AFC4F81E090E0E2
:1003D00001C0880F6A95EAF79081982381E0911116
:1003E00001C080E0089560915403E62FF0E0EB5ADD
:1003F000FC4F80810E943D02809154038F5F8530C5
:1004000008F080E0809354030895E5E5F3E010825E
:10041000118212821382148208950E941B020C948E
:1004200005029C01FC01FF2784A1832B84A385A1E5
:10043000832B85A30895CF93DF93C5E2D3E0899101
:1004400099910E94110283E0C333D807C1F783E07A
:1004500090E40E94110280E090E80E94110283E083
:1004600090E10E94110283E090E80E94110283E073
:1004700090E2DF91CF910C941102E0915A03F0E0E9
:10048000EE0FFF1FE55EFC4F20813181F901FF2750
:1004900095A1932B95A3A5E2B3E043E353E02D91FF
:1004A0003D91F901FF2780FF1BC025A1932F909557
:1004B000922395A386954A175B0789F7E62FF0E00C
:1004C000EE0FFF1FE55EFC4F80819181FC01FF274D
:1004D00025A1892F8095822385A360935A030895CF
:1004E00095A1932BE6CF9C016330710561F038F440
:1004F00061307105D9F06230710509F108956430F9
:10050000710561F00895F901FF2784A1832B84A36D
:1005100095A1832F8095892385A30895F901FF274D
:1005200084A1832B84A385A1832BF6CFF901FF2718
:1005300094A1832F8095982394A395A1ECCFF901E2
:10054000FF2794A1832F80958923ECCFE82FF0E03B
:10055000EE0FFF1FE55AFC4F8081882329F081812F
:1005600091E089278170089580E090E0FBCFE82F2B
:10057000F0E0EE0FFF1FE55AFC4F8081811103C0B0
:1005800081818170089580E090E0FBCFE82FF0E05A
:10059000EE0FFF1FE55AFC4F80810895E82FF0E031
:1005A000EE0FFF1FE55AFC4F808191E089270895E7
:1005B0008F929F92AF92BF92CF92DF92EF92FF9273
:1005C0000F931F93CF93DF9300D00F92CDB7DEB779
:1005D0008BE593E09B838A8393E3C92E93E0D92E26
:1005E00026E0922EEA81FB8180818183F6010191D0
:1005F00011916F015801BB24F50124A1E12EFF24C4
:1006000085A190E08E219F2130E02E213F21232BD8
:1006100009F43DC0892B09F43FC0F4E0F983812C33
:1006200064E070E0C8010E94730262E070E0C801FB
:100630000E947302892D8A95F1F7F50183A190E05C
:100640008E219F2121E0892B09F020E0EA81FB81A6
:1006500020836981782DC8010E9473028A819B8161
:1006600002969B838A838556934009F0BBCF0F90F7
:100670000F900F90DF91CF911F910F91FF90EF900E
:10068000DF90CF90BF90AF909F908F900895892B6F
:1006900031F421E02983C3CF83E08983C0CF92E086
:1006A0009983BDCF0895FC01892B59F08381681B84
:1006B00067FD04C081E09481691708F080E08170D3
:1006C000089580E00895FC01A62F622F892B51F137
:1006D0008181481738F59281291720F59381A91B4C
:1006E000A7FD20C0B0E0248130E0A217B307D4F406
:1006F0000E94DD06480F858190E0BD010E94E6065C
:10070000242F269526952695E80FF91FE20FF11D57
:10071000868190E0477002C0959587954A95E2F7EB
:100720008170089580E00895CF93DF93EC010E94DB
:10073000DB009E0140E050E062E17AE780E090E07B
:100740000E940B073093680320936703DF91CF91DA
:10075000089580916503909166030E94EA0080915C
:100760006503909166032091670330916803820FBF
:10077000931F90936603809365030895692F0C94EB
:10078000DE0141E0611101C040E0692F0C94C40119
:100790000C94C1035F926F927F928F929F92AF925F
:1007A000BF92CF92DF92EF92FF920F931F93CF935E
:1007B000DF93862E772E942E682E592EB62EA72ED6
:1007C000062E000C770BE82F082E000CFF0B8B0178
:1007D0000E1B1F0B272D072C000C330B492F092E46
:1007E000000C550BE901C41BD50B17FF59C0DD24C4
:1007F000DA94D7FD02C0DD24D3948F01061B170BBA
:10080000CC24CA94D7FF03C0EA01C21BD30B0C1738
:100810001D076CF1780117FF03C08FEFE81AF80A83
:10082000F594E794A92E681014C0692D8B2D9A2D8C
:10083000DF91CF911F910F91FF90EF90DF90CF90BC
:10084000BF90AF909F908F907F906F905F900C942F
:10085000C103692D862D9A2D0E94C103EC1AFD0A51
:10086000F7FE03C0E00EF11EAD0C6C0CDCCF7E0178
:10087000D7FF03C09FEFE91AF90AF594E794B82E61
:10088000571499F2692D8B2D952D0E94C103E01A02
:10089000F10AF7FE03C0EC0EFD1EBC0C5D0CF0CFA0
:1008A000CC24C394DD24DA94D7FDAECFDD24D394D9
:1008B000AECFFF920F931F93CF93DF93D82FF92ED4
:1008C000162FC72F042F792F0E94CA03402F6D2F98
:1008D0007C2F8D2F9F2D0E94CA03402F612F7C2FCC
:1008E000812F9F2D0E94CA03402F612F7C2F8D2FB7
:1008F0009C2FDF91CF911F910F91FF900C94CA0311
:100900000E940502E1E0F1E0118A14860895DF9269
:10091000EF92FF920F931F93CF93DF93D82E7B011B
:10092000C62F0F2D8091030190910401D0E0019713
:1009300051F1CE2DCD0FE0910901F0910A01818195
:10094000D81708F45CC0D0E0E0910901F0910A01E9
:100950008281D81708F455C0CF5F27C0212F4D2FB3
:100960006D2D0E946303682F8E2D810F902F0E94A2
:10097000C1031F5F8091090190910A01FC0122814E
:10098000121760F3DF5F0F2D0D1BE0910901F0914D
:100990000A018181D81798F0D0E0E0910901F09127
:1009A0000A018281D81768F001508C2F902FDF91B7
:1009B000CF911F910F91FF90EF90DF90089510E07D
:1009C000D9CF60E08E2D8D0F902F0E94C103DF5F85
:1009D000E4CF212F4D2F6D2D0E946303682F8C2FA4
:1009E0009F2D910F0E94C1031F5F8091090190917B
:1009F0000A01FC012281121760F3DF5F9ACF10E039
:100A0000F4CF60E08C2F9F2D9D0F0E94C103DF5F0C
:100A10009BCF1F93CF93DF93EC0110E08991882344
:100A200041F00E948704BC011F5F853014F477FFFA
:100A3000F5CF812FDF91CF911F9108950F931F93D1
:100A4000CF93DF93EC01362F272F10920D014093A7
:100A50000E01109211010091090110910A01011576
:100A6000110509F446C0F801818160910701709178
:100A7000080190E00E94E606BC0180910B01909174
:100A80000C010E94F706CB016AE070E00E94E606C6
:100A90009093100180930F0130930501209306017C
:100AA00040E250E0BE0182E191E00E944C0780915B
:100AB0000101909102010197E1F4FE0101900020F3
:100AC000E9F73197BF016C1B7D0BF80181818F5FC6
:100AD0000E94DD068150209103013091040197E0CE
:100AE0002130310509F095E0981718F48EEF8093C6
:100AF0001101DF91CF911F910F9108952091030172
:100B00003091040176E02130310509F070E04FEFBB
:100B100060E00C941E0590E090930801809307011B
:100B20000895909302018093010108959093040128
:100B300080930301089590930A0180930901089519
:100B40008091690390916A03019690936A03809360
:100B5000690320910F01309110018217930708F467
:100B600042C010926A0310926903E0910D01F0E017
:100B7000EF5FFE4F8189811109C080910E018230A3
:100B800090F1815080930E0110920D0180910D0122
:100B900090E0FC01EF5FFE4F2189222321F140917B
:100BA0000101509102012091110141155105E9F017
:100BB0004130510559F1809111018F5F80931101EE
:100BC000082E000C990BE0910901F0910A01218196
:100BD00030E0281739073CF41092110180910D0183
:100BE0008F5F80930D010C94F3012111E4CF60918C
:100BF0000501709106018E5E9E4F0E94090590913D
:100C00000D019150980F90930D01D5CF6091050182
:100C1000709106014091030150910401413051054A
:100C200031F4720F8E5E9E4F0E940905C4CF621B85
:100C3000F9CFCF93DF93C1E0D1E09B878A870E94F1
:100C40000D0284E190E09F838E83DF91CF910C941D
:100C50008004CF93DF93EC018A819B810497ECF4AD
:100C60000E940502888199810196998388832A814F
:100C70003B812F5F3F4F3B832A8341E050E066E09A
:100C800070E00E94C40141E050E066E070E08A81BB
:100C90009B81DF91CF910C94C401DF91CF91089596
:100CA000CF93DF93EC018881998118161906ECF433
:100CB0000E940502888199810197998388832A81FE
:100CC0003B81215031093B832A8341E050E066E0BB
:100CD00070E00E94C40141E050E066E070E08A816B
:100CE0009B81DF91CF910C94C401DF91CF91089546
:100CF000CF93DF9300D000D0CDB7DEB70E94CB00FA
:100D00000E9452030E94750084EF91E00E949403B8
:100D100084EF91E00E94190682E391E00E949B0516
:100D20008AE00E948B0581E090E00E9491058DE3AE
:100D300093E00E947E051A82198281E090E09C83F4
:100D40008B8301E010E00E94A9030E94A0050E948D
:100D5000D8028091520390915303009719F00197A4
:100D6000C9F0F1CF84E00E94A602882381F00E949E
:100D70008004109353030093520341E066E089819D
:100D80000E94C40141E066E08B810E94C4010E9480
:100D9000A005D9CF83E00E94A602882321F0CE01CE
:100DA00001960E94500681E00E94A602882359F213
:100DB000CE0101960E942906C6CF002480FD060EB2
:100DC000660F11F08695D1F7802D089500245527E0
:100DD00004C0080E591F880F991F009729F07695B7
:100DE0006795B8F37105B9F7802D952F0895AA1B63
:100DF000BB1B51E107C0AA1FBB1FA617B70710F006
:100E0000A61BB70B881F991F5A95A9F78095909537
:100E1000BC01CD010895052E97FB1EF400940E949D
:100E2000220757FD07D00E942A0707FC03D04EF483
:100E30000C94220750954095309521953F4F4F4F88
:100E40005F4F089590958095709561957F4F8F4F76
:100E50009F4F0895A1E21A2EAA1BBB1BFD010DC0D6
:100E6000AA1FBB1FEE1FFF1FA217B307E407F5075A
:100E700020F0A21BB30BE40BF50B661F771F881F36
:100E8000991F1A9469F760957095809590959B01CC
:100E9000AC01BD01CF010895FB01DC014150504080
:100EA00048F001900D920020C9F701C01D924150F9
:0A0EB0005040E0F70895F894FFCFDA
:100EBA000100000000000014000000000000000013
:100ECA000000000000000000000000000000000018
:100EDA000000000000000000000000000000000008
:100EEA000000010507205F050000000000C6186326
:100EFA0080014A290000004A7DF59502C417471F60
:100F0A000163222232062615519305860800000045
:100F1A0088082108028220848800805457090080AA
:100F2A00904F0800000060880000800F0000000059
:100F3A00008C0100222202002EE63AA303C41042CA
:100F4A0088032E4244C4072E4207A30388A9F4113A
:100F5A00023F8407A3032E8617A3033F42440801D6
:100F6A002E4617A3032E460FA303C018600C00C019
:100F7A00186088008888200802007CF0010082201E
:100F8A008888002E424400012E425BAB0344C51FF1
:100F9A0063042FC617E3032E8610A2032FC618E395
:100FAA00033F8417C2073F841742002E861EA307F9
:100FBA0031C61F63048E10428803104218A30331FE
:100FCA0095515204218410C20771D71A630471D64D
:100FDA001C63042EC618A3032FC61742002EC65838
:100FEA0093052FC61763042E0607A3039F10420812
:100FFA000131C618A30331C618150131C65AAB020E
:10100A00312AA26204312A4208011F2222C207277A
:10101A008410C20120088220000E218490034445D6
:10102A00000000000000C00782200000000038E82D
:10103A00A30721B419E30300B810A20310DA1CA312
:10104A000700B8F883034C8A238400C0C7E8A103C9
:10105A0021B41963040418428803083084920121D8
:10106A00A4324A02861042880300AC5A630400B4D0
:10107A0019630400B818A30300BCF8420000D8ECB6
:10108A00210400B419420000B8E0E003421C212404
:10109A000300C418B30500C418150100C45AAB02F2
:1010AA00004445540400C4E8A103007C44C40788F2
:1010BA001041080284104208018210448800008806
:1010CA008A0000D00008000306080A0340008003D3
:1010DA0010038003200040002000100008000400D4
:1010EA0002000103800340032000800310504F4E8A
:1010FA00472120505245535320544F20504C4159B8
:02110A000000E3
:00000001FF
