:100000000C943A000C9457000C9457000C94570031
:100010000C9457000C9457000C9457000C94570004
:100020000C9457000C9457000C9457000C945700F4
:100030000C9457000C9457000C9457000C945700E4
:100040000C9457000C9457000C9457000C945700D4
:100050000C9457000C9457000C9457000C945700C4
:100060000C9457000C9457000C9457000C945700B4
:100070000C94570011241FBECFEFD4E0DEBFCDBFDC
:1000800013E0A0E0B1E0E4ECFEE002C005900D92C8
:10009000AA3AB107D9F723E0AAEAB3E001C01D925A
:1000A000A53CB207E1F70E9447060C9460070C9448
:1000B00000000C9490010C94B1010C9496010C94E6
:1000C0009C010C94A2010E94A2010E949C01882321
:1000D000E1F38CE291E00197F1F70E949001811128
:1000E0000C945B0008950C94B801CF93DF9300D07B
:1000F0000F92CDB7DEB78091490390914A03A0914A
:100100004B0389839A83AB83509A589A0E94660165
:100110008FE690E00E94FE0081E090E00E94550191
:1001200061E070E081E090E00E9442010E942E01B7
:10013000CE0101960E9478010F900F900F90DF91F1
:10014000CF910895CF93DF93EC01D901FB0120E01B
:1001500030E080E061E070E0841304C02C93DF9114
:10016000CF91089591919B01092E02C0220F331F58
:100170000A94E2F72F5F3F4F369527952C0F3D1FCE
:1001800002C0369527959A95E2F72F3F310531F356
:1001900028F38F5FE1CFE1E6F0E080E88083108212
:1001A000A89584B7877F84BFE0E6F0E0808188610E
:1001B0008083108208951092800084E080938100F3
:1001C000109285001092840008958091840090918F
:1001D000850008959C018091840090918500AC0178
:1001E000421B530B483E5340B0F7089520918400C2
:1001F00030918500820F931F0C94EA00CF93DF9318
:100200000F92CDB7DEB79E012F5F3F4F45E06CE404
:1002100073E00E94A200E82F81E08E0F80933601E8
:100220008981815087BD18BC85B58770882339F0D6
:1002300095B5809136018770987F892B85BD89811E
:1002400090E0F0E0E45BFC4F208102C0880F991F32
:100250002A95E2F70F90DF91CF91089585B3897FBA
:1002600085BB95B5809136018770987F892B85BDB8
:10027000089585B5887F85BD089585B382FB88275D
:1002800080F90895009719F0019751F0089584B509
:100290008F736295660F660F607C682B64BD08954E
:1002A00084B5629560738F7CF8CF009721F0019739
:1002B00039F080E0089584B58C7F84BD81E0089595
:1002C00084B58E7F84BD84B58260F7CF14BC15BC25
:1002D00016BC18BC81E090E00E94550181E00895B1
:1002E0009C0101979093CD0021502093CC0008955C
:1002F000CF93DF93EC01888199810E9470018A81FC
:100300009BEF980F943008F088E098E19093C90033
:100310008550880F8093CA0081E0DF91CF910895C6
:100320008091C800881F8827881F08958091C80081
:1003300085FB882780F908958091C80086FB88276F
:1003400080F90895CF93C82F0E9496018823E1F386
:100350008091C80080648093C800C093CE00CF9184
:1003600008958091C80087FFFCCF8091CE0008954A
:10037000CF93DF93EC018991811103C0DF91CF917D
:1003800008950E94A201F7CF8530B8F46730A8F431
:1003900021E030E0F90102C0EE0FFF1F6A95E2F79D
:1003A000BF01E82FF0E0E155FC4F862F809590814A
:1003B000892341954623842B80830895853088F4D2
:1003C000673078F4E82FF0E0E155FC4F81E090E0F1
:1003D00001C0880F6A95EAF79081982381E0911116
:1003E00001C080E008956091AE03E62FF0E0E15592
:1003F000FC4F80810E943D028091AE038F5F85306B
:1004000008F080E08093AE030895EFEAF3E01082F5
:10041000118212821382148208950E941B020C948E
:1004200005029C01FC01FF2784A1832B84A385A1E5
:10043000832B85A30895CF93DF93CBE5D3E08991F8
:1004400099910E94110283E0C936D807C1F783E071
:1004500090E40E94110280E090E80E94110283E083
:1004600090E10E94110283E090E80E94110283E073
:1004700090E2DF91CF910C941102E091B403F0E08F
:10048000EE0FFF1FEF5AFC4F20813181F901FF274A
:1004900095A1932B95A3ABE5B3E049E653E02D91ED
:1004A0003D91F901FF2780FF1BC025A1932F909557
:1004B000922395A386954A175B0789F7E62FF0E00C
:1004C000EE0FFF1FEF5AFC4F80819181FC01FF2747
:1004D00025A1892F8095822385A36093B403089575
:1004E00095A1932BE6CF9C016330710561F038F440
:1004F00061307105D9F06230710509F108956430F9
:10050000710561F00895F901FF2784A1832B84A36D
:1005100095A1832F8095892385A30895F901FF274D
:1005200084A1832B84A385A1832BF6CFF901FF2718
:1005300094A1832F8095982394A395A1ECCFF901E2
:10054000FF2794A1832F80958923ECCFE82FF0E03B
:10055000EE0FFF1FEB54FC4F8081882329F081812F
:1005600091E089278170089580E090E0FBCFE82F2B
:10057000F0E0EE0FFF1FEB54FC4F8081811103C0B0
:1005800081818170089580E090E0FBCFE82FF0E05A
:10059000EE0FFF1FEB54FC4F80810895E82FF0E031
:1005A000EE0FFF1FEB54FC4F808191E089270895E7
:1005B0008F929F92AF92BF92CF92DF92EF92FF9273
:1005C0000F931F93CF93DF9300D00F92CDB7DEB779
:1005D00085EB93E09B838A8399E6C92E93E0D92E1D
:1005E00026E0922EEA81FB8180818183F6010191D0
:1005F00011916F015801BB24F50124A1E12EFF24C4
:1006000085A190E08E219F2130E02E213F21232BD8
:1006100009F43DC0892B09F43FC0F4E0F983812C33
:1006200064E070E0C8010E94730262E070E0C801FB
:100630000E947302892D8A95F1F7F50183A190E05C
:100640008E219F2121E0892B09F020E0EA81FB81A6
:1006500020836981782DC8010E9473028A819B8161
:1006600002969B838A838F5B934009F0BBCF0F90E8
:100670000F900F90DF91CF911F910F91FF90EF900E
:10068000DF90CF90BF90AF909F908F900895892B6F
:1006900031F421E02983C3CF83E08983C0CF92E086
:1006A0009983BDCF0895FC01892B59F08381681B84
:1006B00067FD04C081E09481691708F080E08170D3
:1006C000089580E00895FC01A62F622F892B51F137
:1006D0008181481738F59281291720F59381A91B4C
:1006E000A7FD20C0B0E0248130E0A217B307D4F406
:1006F0000E94CE06480F858190E0BD010E94D7067A
:10070000242F269526952695E80FF91FE20FF11D57
:10071000868190E0477002C0959587954A95E2F7EB
:100720008170089580E00895CF93DF93EC010E94DB
:10073000DB009E0140E050E062E17AE780E090E07B
:100740000E9410073093C2032093C103DF91CF9121
:1007500008958091BF039091C0030E94EA008091A8
:10076000BF039091C0032091C1033091C203820F57
:10077000931F9093C0038093BF030895692F0C9437
:10078000DE0141E0611101C040E0692F0C94C40119
:100790000C94C1035F926F927F928F929F92AF925F
:1007A000BF92CF92DF92EF92FF920F931F93CF935E
:1007B000DF93862E772E942E682E592EB62EA72ED6
:1007C000062E000C770BE82F082E000CFF0B8B0178
:1007D0000E1B1F0B272D072C000C330B492F092E46
:1007E000000C550BE901C41BD50B17FF59C0DD24C4
:1007F000DA94D7FD02C0DD24D3948F01061B170BBA
:10080000CC24CA94D7FF03C0EA01C21BD30B0C1738
:100810001D076CF1780117FF03C08FEFE81AF80A83
:10082000F594E794A92E681014C0692D8B2D9A2D8C
:10083000DF91CF911F910F91FF90EF90DF90CF90BC
:10084000BF90AF909F908F907F906F905F900C942F
:10085000C103692D862D9A2D0E94C103EC1AFD0A51
:10086000F7FE03C0E00EF11EAD0C6C0CDCCF7E0178
:10087000D7FF03C09FEFE91AF90AF594E794B82E61
:10088000571499F2692D8B2D952D0E94C103E01A02
:10089000F10AF7FE03C0EC0EFD1EBC0C5D0CF0CFA0
:1008A000CC24C394DD24DA94D7FDAECFDD24D394D9
:1008B000AECFFF920F931F93CF93DF93D82FF92ED4
:1008C000162FC72F042F792F0E94CA03402F6D2F98
:1008D0007C2F8D2F9F2D0E94CA03402F612F7C2FCC
:1008E000812F9F2D0E94CA03402F612F7C2F8D2FB7
:1008F0009C2FDF91CF911F910F91FF900C94CA0311
:100900000E940502E7E3F1E0118A14860895DF9260
:10091000EF92FF920F931F93CF93DF93D82E7B011B
:10092000C62F0F2D8091390190913A01D0E00197A7
:1009300051F1CE2DCD0FE0913F01F0914001818129
:10094000D81708F45CC0D0E0E0913F01F09140017D
:100950008281D81708F455C0CF5F27C0212F4D2FB3
:100960006D2D0E946303682F8E2D810F902F0E94A2
:10097000C1031F5F80913F0190914001FC012281E2
:10098000121760F3DF5F0F2D0D1BE0913F01F09117
:1009900040018181D81798F0D0E0E0913F01F091BB
:1009A00040018281D81768F001508C2F902FDF9181
:1009B000CF911F910F91FF90EF90DF90089510E07D
:1009C000D9CF60E08E2D8D0F902F0E94C103DF5F85
:1009D000E4CF212F4D2F6D2D0E946303682F8C2FA4
:1009E0009F2D910F0E94C1031F5F80913F01909145
:1009F0004001FC012281121760F3DF5F9ACF10E003
:100A0000F4CF60E08C2F9F2D9D0F0E94C103DF5F0C
:100A10009BCF1F93CF93DF93EC0110E08991882344
:100A200041F00E948704BC011F5F853014F477FFFA
:100A3000F5CF812FDF91CF911F9108950F931F93D1
:100A4000CF93DF93EC01362F272F10924301409371
:100A500044011092470100913F011091400101159E
:100A6000110509F446C0F801818160913D01709142
:100A70003E0190E00E94D706BC0180914101909117
:100A800042010E94E806CB016AE070E00E94D706AE
:100A9000909346018093450130933B0120933C01A4
:100AA00040E250E0BE0188E491E00E94510780914D
:100AB0003701909138010197E1F4FE010190002087
:100AC000E9F73197BF016C1B7D0BF80181818F5FC6
:100AD0000E94CE0681502091390130913A0197E071
:100AE0002130310509F095E0981718F48EEF8093C6
:100AF0004701DF91CF911F910F9108952091390106
:100B000030913A0176E02130310509F070E04FEF85
:100B100060E00C941E0590E090933E0180933D01AF
:100B200008959093380180933701089590933A0186
:100B30008093390108959093400180933F01089577
:100B40008091C3039091C40301969093C403809352
:100B5000C30320914501309146018217930708F4A1
:100B600042C01092C4031092C303E0914301F0E02D
:100B7000E95CFE4F8189811109C080914401823076
:100B800090F1815080934401109243018091430180
:100B900090E0FC01E95CFE4F2189222321F1409184
:100BA0003701509138012091470141155105E9F075
:100BB0004130510559F1809147018F5F8093470182
:100BC000082E000C990BE0913F01F091400121812A
:100BD00030E0281739073CF4109247018091430117
:100BE0008F5F809343010C94F3012111E4CF609156
:100BF0003B0170913C01885B9E4F0E9409059091DA
:100C000043019150980F90934301D5CF60913B01E0
:100C100070913C014091390150913A0141305105A8
:100C200031F4720F885B9E4F0E940905C4CF621B8E
:100C3000F9CFCF93DF93C7E3D1E09B878A870E94E8
:100C40000D0284E190E09F838E83DF91CF910C941D
:100C500080049B0166E070E00E94D706820F931F1C
:100C6000089566E070E00E94FC06CB01089566E0FE
:100C700070E00E94FC060895811105C0662311F002
:100C8000429A0895429808953A9A429A08950E9485
:100C9000CB000E9452030E9475000E94440686E227
:100CA00092E00E94940386E292E00E94190688E690
:100CB00091E00E949B058AE00E948B05809134019F
:100CC000909135010E947E05C1E0D0E00E94A90309
:100CD0000E94A0050E94D8020E94F3018091AA03FD
:100CE0009091AB03009719F00197C9F0EFCF84E022
:100CF0000E94A602882351F3D093AB03C093AA03AA
:100D00000E948004E091AC03F091AD03EE0FFF1F51
:100D1000E050FF4F808191810E947E05D7CF80E017
:100D20000E94A602882391F08091AC039091AD03BC
:100D300001969093AD038093AC03880F991FFC013B
:100D4000E050FF4F808191810E947E0582E00E94E9
:100D5000A602882391F08091AC039091AD03019796
:100D60009093AD038093AC03880F991FFC01E05072
:100D7000FF4F808191810E947E0584E00E94A6023F
:100D8000882309F4A3CF60E080E00E943C068091B4
:100D9000AC030E9463000E94800498CF002480FD71
:100DA000060E660F11F08695D1F7802D0895002468
:100DB000552704C0080E591F880F991F009729F066
:100DC00076956795B8F37105B9F7802D952F08953D
:100DD000AA1BBB1B51E107C0AA1FBB1FA617B70761
:100DE00010F0A61BB70B881F991F5A95A9F780957D
:100DF0009095BC01CD01089597FB072E16F4009441
:100E000007D077FD09D00E94E80607FC05D03EF424
:100E1000909581959F4F0895709561957F4F0895A6
:100E2000052E97FB1EF400940E94270757FD07D05C
:100E30000E942F0707FC03D04EF40C94270750950F
:100E40004095309521953F4F4F4F5F4F08959095B6
:100E50008095709561957F4F8F4F9F4F0895A1E2C8
:100E60001A2EAA1BBB1BFD010DC0AA1FBB1FEE1F24
:100E7000FF1FA217B307E407F50720F0A21BB30B6F
:100E8000E40BF50B661F771F881F991F1A9469F7EB
:100E900060957095809590959B01AC01BD01CF0147
:100EA0000895FB01DC014150504048F001900D9243
:100EB0000020C9F701C01D9241505040E0F708954D
:040EC000F894FFCFD4
:100EC40073037503770379037B037D037F03810336
:100ED40083038503870389038B038D038F039103A6
:100EE40093039503970399039B039D039F03A10316
:100EF400A303A503A70301000000000000140000E1
:100F040000000000000000000000000000000000DD
:100F140000000000000000000000000000000000CD
:100F24000000000000000000010507205F0500002C
:100F3400000000C6186380014A290000004A7DF5BC
:100F44009502C417471F01632222320626155193C6
:100F54000586080000008808210802822084880091
:100F6400805457090080904F0800000060880000FA
:100F7400800F00000000008C0100222202002EE6F7
:100F84003AA303C4104288032E4244C4072E4207E6
:100F9400A30388A9F411023F8407A3032E8617A391
:100FA400033F424408012E4617A3032E460FA30312
:100FB400C018600C00C018608800888820080200EF
:100FC4007CF0010082208888002E424400012E42D9
:100FD4005BAB0344C51F63042FC617E3032E8610BF
:100FE400A2032FC618E3033F8417C2073F841742A6
:100FF400002E861EA30731C61F63048E1042880389
:10100400104218A3033195515204218410C2077170
:10101400D71A630471D61C63042EC618A3032FC603
:101024001742002EC65893052FC61763042E0607D1
:10103400A3039F1042080131C618A30331C6181533
:101044000131C65AAB02312AA26204312A42080194
:101054001F2222C207278410C20120088220000E0A
:10106400218490034445000000000000C007822052
:101074000000000038E8A30721B419E30300B81006
:10108400A20310DA1CA30700B8F883034C8A238454
:1010940000C0C7E8A10321B41963040418428803FB
:1010A400083084920121A4324A0286104288030047
:1010B400AC5A630400B419630400B818A30300BC59
:1010C400F8420000D8EC210400B419420000B8E052
:1010D400E003421C21240300C418B30500C41815FE
:1010E4000100C45AAB02004445540400C4E8A103FF
:1010F400007C44C40788104108028410420801821D
:101104001044880000888A0000D000080003060804
:101114000A034000800310038003200040002000E5
:1011240010000800040002000103800340032000B3
:10113400800310410042004300440045004600473C
:1011440000480049004A004B004C004D004E004F3F
:1011540000500051005200530054005500560057EF
:0A11640000580059005A0030000046
:00000001FF
