:100000000C943A000C9457000C9457000C94570031
:100010000C9457000C9457000C9457000C94570004
:100020000C9457000C9457000C9457000C945700F4
:100030000C9457000C9457000C9457000C945700E4
:100040000C9457000C9457000C9457000C945700D4
:100050000C9457000C9457000C9457000C945700C4
:100060000C9457000C9457000C9457000C945700B4
:100070000C94570011241FBECFEFD4E0DEBFCDBFDC
:1000800013E0A0E0B1E0E8E4F0E102C005900D92D9
:10009000A23BB107D9F723E0A2EBB3E001C01D9268
:1000A000AD3CB207E1F70E9438070C9422080C948B
:1000B00000008091B2039091B3032091020130912E
:1000C000030182179307BCF42091000130910101D4
:1000D000232B89F08931910574F401969093B30331
:1000E0008093B203880F991FFC01EC5FFE4F808163
:1000F00091810C946F060895809100019091010107
:10010000892BD9F08091B2039091B3032091020121
:1001100030910301215031098217930774F0019740
:100120009093B3038093B203880F991FFC01EC5F97
:10013000FE4F808191810C946F060895809100019B
:1001400090910101892B71F12091B2033091B30399
:10015000809102019091030102972817390714F149
:100160002931310579F060E080E00E942D0780910F
:10017000B2030E9454010E94710510920101109275
:10018000000108950E94710581E090E00E948206BE
:1001900087E793E00E946F0682E090E09093B503BA
:1001A0008093B40308950E944C01082E000C990B13
:1001B0009093B3038093B203880F991FFC01EC5F07
:1001C000FE4F808191810E946F0661E080E00E9475
:1001D0002D078091B2039091B3030396909303018E
:1001E0008093020181E090E09093010180930001EF
:1001F000089584E00E949703882309F183E090E04A
:1002000090930301809302011092B3031092B20302
:1002100081E090E09093B5038093B4030E94710550
:10022000E091B203F091B303EE0FFF1FEC5FFE4FBE
:10023000808191810E946F0683E50E9454010E9493
:100240004A01882381F00E944C01833561F40E94A9
:10025000710581E090E09093B5038093B403109210
:1002600001011092000108951092B5031092B40399
:1002700083E090E090930301809302011092B30316
:100280001092B20381E090E090930101809300010D
:100290000C9471050C9481020C94A2020C948702B8
:1002A0000C948D020C9493020E9493020E948D0282
:1002B0008823E1F38CE291E00197F1F70E9481023B
:1002C00081110C944C0108950C94A902CF93DF93F3
:1002D00000D00F92CDB7DEB780914D0390914E03C1
:1002E000A0914F0389839A83AB83509A589A0E94B6
:1002F00057028FE690E00E94EF0181E090E00E94BB
:10030000460261E070E081E090E00E9433020E94CA
:100310001F02CE0101960E9469020F900F900F906C
:10032000DF91CF910895CF93DF93EC01D901FB01C9
:1003300020E030E080E061E070E0841304C02C93A2
:10034000DF91CF91089591919B01092E02C0220F58
:10035000331F0A94E2F72F5F3F4F369527952C0FF6
:100360003D1F02C0369527959A95E2F72F3F31053C
:1003700031F328F38F5FE1CFE1E6F0E080E880839E
:100380001082A89584B7877F84BFE0E6F0E0808183
:1003900088618083108208951092800084E08093A9
:1003A000810010928500109284000895809184004D
:1003B0009091850008959C01809184009091850022
:1003C000AC01421B530B483E5340B0F708952091B7
:1003D000840030918500820F931F0C94DB01CF9332
:1003E000DF930F92CDB7DEB79E012F5F3F4F45E001
:1003F00060E573E00E949301E82F81E08E0F809307
:100400003A018981815087BD18BC85B587708823E2
:1004100039F095B580913A018770987F892B85BD19
:10042000898190E0F0E0E05BFC4F208102C0880F02
:10043000991F2A95E2F70F90DF91CF91089585B328
:10044000897F85BB95B580913A018770987F892B0C
:1004500085BD089585B5887F85BD089585B382FBE8
:10046000882780F90895009719F0019751F00895B1
:1004700084B58F736295660F660F607C682B64BDD0
:10048000089584B5629560738F7CF8CF009721F052
:10049000019739F080E0089584B58C7F84BD81E0B8
:1004A000089584B58E7F84BD84B58260F7CF14BC77
:1004B00015BC16BC18BC81E090E00E94460281E0A9
:1004C00008959C0101979093CD0021502093CC007A
:1004D0000895CF93DF93EC01888199810E94610296
:1004E0008A819BEF980F943008F088E098E1909310
:1004F000C9008550880F8093CA0081E0DF91CF91B9
:1005000008958091C800881F8827881F08958091CA
:10051000C80085FB882780F908958091C80086FB74
:10052000882780F90895CF93C82F0E9487028823D7
:10053000E1F38091C80080648093C800C093CE002E
:10054000CF9108958091C80087FFFCCF8091CE00A5
:100550000895CF93DF93EC018991811103C0DF915E
:10056000CF9108950E949302F7CF8530B8F4673099
:10057000A8F421E030E0F90102C0EE0FFF1F6A95F8
:10058000E2F7BF01E82FF0E0E954FC4F862F809599
:100590009081892341954623842B8083089585305B
:1005A00088F4673078F4E82FF0E0E954FC4F81E0FC
:1005B00090E001C0880F6A95EAF79081982381E066
:1005C000911101C080E008956091B603E62FF0E03C
:1005D000E954FC4F80810E942E038091B6038F5F07
:1005E000853008F080E08093B6030895E7EBF3E0F0
:1005F0001082118212821382148208950E940C03C9
:100600000C94F6029C01FC01FF2784A1832B84A398
:1006100085A1832B85A30895CF93DF93CFE5D3E006
:10062000899199910E94020383E0CD36D807C1F7E2
:1006300083E090E40E94020380E090E80E940203BD
:1006400083E090E10E94020383E090E80E940203AD
:1006500083E090E2DF91CF910C940203E091BC0320
:10066000F0E0EE0FFF1FEB5AFC4F20813181F901C2
:10067000FF2795A1932B95A3AFE5B3E04DE653E09B
:100680002D913D91F901FF2780FF1BC025A1932FDC
:100690009095922395A386954A175B0789F7E62FD5
:1006A000F0E0EE0FFF1FEB5AFC4F80819181FC01BF
:1006B000FF2725A1892F8095822385A36093BC0302
:1006C000089595A1932BE6CF9C016330710561F0ED
:1006D00038F461307105D9F06230710509F108957F
:1006E0006430710561F00895F901FF2784A1832B1F
:1006F00084A395A1832F8095892385A30895F9016B
:10070000FF2784A1832B84A385A1832BF6CFF90136
:10071000FF2794A1832F8095982394A395A1ECCFD4
:10072000F901FF2794A1832F80958923ECCFE82F2F
:10073000F0E0EE0FFF1FE354FC4F8081882329F087
:10074000818191E089278170089580E090E0FBCF5E
:10075000E82FF0E0EE0FFF1FE354FC4F8081811182
:1007600003C081818170089580E090E0FBCFE82F85
:10077000F0E0EE0FFF1FE354FC4F80810895E82F57
:10078000F0E0EE0FFF1FE354FC4F808191E08927DA
:1007900008958F929F92AF92BF92CF92DF92EF9285
:1007A000FF920F931F93CF93DF9300D00F92CDB79B
:1007B000DEB78DEB93E09B838A839DE6C92E93E0A1
:1007C000D92E26E0922EEA81FB8180818183F60179
:1007D000019111916F015801BB24F50124A1E12E73
:1007E000FF2485A190E08E219F2130E02E213F2122
:1007F000232B09F43DC0892B09F43FC0F4E0F983B1
:10080000812C64E070E0C8010E94640362E070E043
:10081000C8010E946403892D8A95F1F7F50183A12F
:1008200090E08E219F2121E0892B09F020E0EA81D0
:10083000FB8120836981782DC8010E9464038A812D
:100840009B8102969B838A83875C934009F0BBCF90
:100850000F900F900F90DF91CF911F910F91FF900C
:10086000EF90DF90CF90BF90AF909F908F900895C2
:10087000892B31F421E02983C3CF83E08983C0CF62
:1008800092E09983BDCF0895FC01892B59F08381B3
:10089000681B67FD04C081E09481691708F080E05F
:1008A0008170089580E00895FC01A62F622F892BA6
:1008B00051F18181481738F59281291720F59381EC
:1008C000A91BA7FD20C0B0E0248130E0A217B30728
:1008D000D4F40E949007480F858190E0BD010E94EA
:1008E0009907242F269526952695E80FF91FE20FE4
:1008F000F11D868190E0477002C0959587954A95D5
:10090000E2F78170089580E00895CF93DF93EC01C2
:100910000E94CC019E0140E050E062E17AE780E075
:1009200090E00E94D2073093CA032093C903DF915D
:10093000CF9108958091C7039091C8030E94DB0175
:100940008091C7039091C8032091C9033091CA03D5
:10095000820F931F9093C8038093C7030895692F54
:100960000C94CF0241E0611101C040E0692F0C946A
:10097000B5020C94B2045F926F927F928F929F9215
:10098000AF92BF92CF92DF92EF92FF920F931F939D
:10099000CF93DF93862E772E942E682E592EB62E67
:1009A000A72E062E000C770BE82F082E000CFF0B4D
:1009B0008B010E1B1F0B272D072C000C330B492F0F
:1009C000092E000C550BE901C41BD50B17FF59C0AC
:1009D000DD24DA94D7FD02C0DD24D3948F01061BF9
:1009E000170BCC24CA94D7FF03C0EA01C21BD30B58
:1009F0000C171D076CF1780117FF03C08FEFE81A81
:100A0000F80AF594E794A92E681014C0692D8B2D6F
:100A10009A2DDF91CF911F910F91FF90EF90DF9072
:100A2000CF90BF90AF909F908F907F906F905F908E
:100A30000C94B204692D862D9A2D0E94B204EC1AF2
:100A4000FD0AF7FE03C0E00EF11EAD0C6C0CDCCF0E
:100A50007E01D7FF03C09FEFE91AF90AF594E794E6
:100A6000B82E571499F2692D8B2D952D0E94B20442
:100A7000E01AF10AF7FE03C0EC0EFD1EBC0C5D0C83
:100A8000F0CFCC24C394DD24DA94D7FDAECFDD249F
:100A9000D394AECFFF920F931F93CF93DF93D82FB2
:100AA000F92E162FC72F042F792F0E94BB04402F39
:100AB0006D2F7C2F8D2F9F2D0E94BB04402F612F07
:100AC0007C2F812F9F2D0E94BB04402F612F7C2FF4
:100AD0008D2F9C2FDF91CF911F910F91FF900C9440
:100AE000BB040E94F602EBE3F1E0118A148608953C
:100AF000DF92EF92FF920F931F93CF93DF93D82E45
:100B00007B01C62F0F2D80913D0190913E01D0E0D9
:100B1000019751F1CE2DCD0FE0914301F0914401A9
:100B20008181D81708F45CC0D0E0E0914301F091D6
:100B300044018281D81708F455C0CF5F27C0212F08
:100B40004D2F6D2D0E945404682F8E2D810F902FF4
:100B50000E94B2041F5F8091430190914401FC0107
:100B60002281121760F3DF5F0F2D0D1BE09143010F
:100B7000F09144018181D81798F0D0E0E0914301D1
:100B8000F09144018281D81768F001508C2F902F8A
:100B9000DF91CF911F910F91FF90EF90DF9008951B
:100BA00010E0D9CF60E08E2D8D0F902F0E94B204FF
:100BB000DF5FE4CF212F4D2F6D2D0E945404682F4D
:100BC0008C2F9F2D910F0E94B2041F5F80914301D3
:100BD00090914401FC012281121760F3DF5F9ACFEC
:100BE00010E0F4CF60E08C2F9F2D9D0F0E94B20487
:100BF000DF5F9BCF1F93CF93DF93EC0110E08991D0
:100C0000882341F00E947805BC011F5F853014F4F1
:100C100077FFF5CF812FDF91CF911F9108950F932B
:100C20001F93CF93DF93EC01362F272F10924701AC
:100C30004093480110924B010091430110914401EF
:100C40000115110509F446C0F80181816091410147
:100C50007091420190E00E949907BC01809145018A
:100C6000909146010E94AA07CB016AE070E00E94C1
:100C7000990790934A018093490130933F01209353
:100C8000400140E250E0BE018CE491E00E94130874
:100C900080913B0190913C010197E1F4FE010190AC
:100CA0000020E9F73197BF016C1B7D0BF8018181B2
:100CB0008F5F0E949007815020913D0130913E014D
:100CC00097E02130310509F095E0981718F48EEF80
:100CD00080934B01DF91CF911F910F910895209147
:100CE0003D0130913E0176E02130310509F070E0A0
:100CF0004FEF60E00C940F0690E0909342018093D8
:100D00004101089590933C0180933B010895909395
:100D10003E0180933D0108959093440180934301E7
:100D200008958091CB039091CC0301969093CC03CE
:100D30008093CB032091490130914A018217930798
:100D400008F442C01092CC031092CB03E09147010B
:100D5000F0E0E55CFE4F8189811109C08091480176
:100D6000823090F181508093480110924701809128
:100D7000470190E0FC01E55CFE4F2189222321F12F
:100D800040913B0150913C0120914B01411551058F
:100D9000E9F04130510559F180914B018F5F80930B
:100DA0004B01082E000C990BE0914301F091440196
:100DB000218130E0281739073CF410924B018091D3
:100DC00047018F5F809347010C94E4022111E4CF27
:100DD00060913F0170914001845B9E4F0E94FA0533
:100DE000909147019150980F90934701D5CF609112
:100DF0003F017091400140913D0150913E014130D1
:100E0000510531F4720F845B9E4F0E94FA05C4CFE6
:100E1000621BF9CFCF93DF93CBE3D1E09B878A8727
:100E20000E94FE0284E190E09F838E83DF91CF9148
:100E30000C9471059B0166E070E00E949907820F97
:100E4000931F089566E070E00E94BE07CB010895ED
:100E500066E070E00E94BE070895811105C0662318
:100E600011F0429A0895429808953A9A429A089544
:100E70000E94BC010E9443040E9466010E94350743
:100E800086E292E00E94850486E292E00E940A07D0
:100E90008CE691E00E948C068AE00E947C0680919C
:100EA0003801909139010E946F060E949A040E94B5
:100EB00091060E94C9030E94E4028091B4039091BC
:100EC000B5038130910539F018F00297E9F0EDCFC4
:100ED0000E94F900EACF80E00E94970381110E94EE
:100EE000590082E00E94970381110E947C0084E0F7
:100EF0000E94970381110E949E000E944A0188234C
:100F0000A1F20E94D300D1CF84E00E9497038823EE
:100F100061F280E090E00E9482060E943401C5CF19
:100F2000002480FD060E660F11F08695D1F7802D06
:100F300008950024552704C0080E591F880F991FD3
:100F4000009729F076956795B8F37105B9F7802D6C
:100F5000952F0895AA1BBB1B51E107C0AA1FBB1FF9
:100F6000A617B70710F0A61BB70B881F991F5A9535
:100F7000A9F780959095BC01CD01089597FB072EA8
:100F800016F4009407D077FD09D00E94AA0707FC49
:100F900005D03EF4909581959F4F08957095619589
:100FA0007F4F0895052E97FB1EF400940E94E907D9
:100FB00057FD07D00E94F10707FC03D04EF40C94B4
:100FC000E90750954095309521953F4F4F4F5F4F22
:100FD000089590958095709561957F4F8F4F9F4FA5
:100FE0000895A1E21A2EAA1BBB1BFD010DC0AA1F6A
:100FF000BB1FEE1FFF1FA217B307E407F50720F082
:10100000A21BB30BE40BF50B661F771F881F991FFC
:101010001A9469F760957095809590959B01AC0145
:10102000BD01CF010895FB01DC014150504048F063
:1010300001900D920020C9F701C01D92415050400F
:08104000E0F70895F894FFCFDA
:10104800010003007D037F03810383038503870376
:1010580089038B038D038F039103930395039703F0
:1010680099039B039D037B039F03A103A303A5038C
:10107800A703A903AB03AD03AF0301000000000001
:101088000014000000000000000000000000000044
:101098000000000000000000000000000000000048
:1010A800000000000000000000000000010507200B
:1010B8005F050000000000C6186380014A2900008F
:1010C800004A7DF59502C417471F016322223206A4
:1010D8002615519305860800000088082108028219
:1010E80020848800805457090080904F0800000031
:1010F80060880000800F00000000008C01002222A0
:1011080002002EE63AA303C4104288032E4244C4C8
:10111800072E4207A30388A9F411023F8407A303FB
:101128002E8617A3033F424408012E4617A3032E19
:10113800460FA303C018600C00C018608800888898
:10114800200802007CF0010082208888002E42449A
:1011580000012E425BAB0344C51F63042FC617E38F
:10116800032E8610A2032FC618E3033F8417C20775
:101178003F841742002E861EA30731C61F63048EC4
:1011880010428803104218A3033195515204218458
:1011980010C20771D71A630471D61C63042EC618CF
:1011A800A3032FC61742002EC65893052FC61763F0
:1011B800042E0607A3039F1042080131C618A30393
:1011C80031C618150131C65AAB02312AA262043160
:1011D8002A4208011F2222C207278410C2012008C0
:1011E8008220000E21849003444500000000000086
:1011F800C00782200000000038E8A30721B419E3E3
:101208000300B810A20310DA1CA30700B8F8830380
:101218004C8A238400C0C7E8A10321B419630404DD
:1012280018428803083084920121A4324A028610A9
:1012380042880300AC5A630400B419630400B81868
:10124800A30300BCF8420000D8EC210400B4194202
:101258000000B8E0E003421C21240300C418B305D1
:1012680000C418150100C45AAB02004445540400D8
:10127800C4E8A103007C44C4078810410802841014
:10128800420801821044880000888A0000D00008C3
:10129800000306080A0340008003100380032000AF
:1012A8004000200010000800040002000103800331
:1012B800400320008003104C4F5345520041004228
:1012C8000043004400450046004700480049004AE2
:1012D800004B004C004D004E004F00500051005391
:1012E800005400550056005700580059005A003065
:0212F8000000F4
:00000001FF
