:100000000C943A000C9457000C9457000C94570031
:100010000C9457000C9457000C9457000C94570004
:100020000C9457000C9457000C9457000C945700F4
:100030000C9457000C9457000C9457000C945700E4
:100040000C9457000C9457000C9457000C945700D4
:100050000C9457000C9457000C9457000C945700C4
:100060000C9457000C9457000C9457000C945700B4
:100070000C94570011241FBECFEFD4E0DEBFCDBFDC
:1000800013E0A0E0B1E0E6E8F0E102C005900D92D7
:10009000A63CB107D9F723E0A6ECB3E001C01D925E
:1000A000A13EB207E1F70E9455070C9441080C9459
:1000B00000008091C6039091C70320910201309106
:1000C000030182179307BCF42091000130910101D4
:1000D000232B89F08931910574F401969093C7031D
:1000E0008093C603880F991FFC01EC5FFE4F80814F
:1000F00091810C94870608958091000190910101EF
:10010000892BD9F08091C6039091C70320910201F9
:1001100030910301215031098217930774F0019740
:100120009093C7038093C603880F991FFC01EC5F6F
:10013000FE4F808191810C94870608958091000183
:1001400090910101892B89F12091C6033091C70359
:1001500080910201909103010297281739072CF131
:100160002931310579F060E080E00E944A078091F2
:10017000C6030E9481010E948B051092010110921A
:10018000000108950E948B0581E090E00E949C068A
:1001900087E793E00E94870682E090E09093C9038E
:1001A0008093C80381E40C94810108950E94790131
:1001B000082E000C990B9093C7038093C6038134DB
:1001C000910541F481E090E00E949C068DE793E068
:1001D0000C9487068234910511F40C948B0580E011
:1001E00090E00E949C06E091C603F091C703EE0FD9
:1001F000FF1FEC5FFE4F808191810E94870661E0C6
:1002000080E00E944A078091C6039091C70303963D
:10021000909303018093020181E090E090930101AB
:1002200080930001089584E00E94C803882329F187
:1002300083E090E090930301809302011092C70342
:100240001092C60381E090E09093C9038093C803A5
:100250000E948B0580E090E00E949C06E091C6031E
:10026000F091C703EE0FFF1FEC5FFE4F808191817D
:100270000E94870683E50E9481010E9477018823FE
:10028000A1F00E947901833581F40E948B0560E022
:1002900080E00E944A0781E090E09093C903809338
:1002A000C8031092010110920001089583E090E0CC
:1002B00090930301809302011092C7031092C6032A
:1002C00081E090E09093C9038093C8030E948B055E
:1002D000E091C603F091C703EE0FFF1FEC5FFE4FE6
:1002E000808191810E94870682E40C9481010C94A4
:1002F000B2020C94D3020C94B8020C94BE020C947B
:10030000C4020E94C4020E94BE028823E1F38CE270
:1003100091E00197F1F70E94B20281110C947901EA
:1003200008950C94DA02CF93DF9300D01F92CDB7DB
:10033000DEB780914D0390914E03A0914F038983C6
:100340009A83AB83509A589A0E9485028FE690E078
:100350000E941C0281E090E00E94740261E070E063
:1003600081E090E00E9460020E944C02CE01019662
:100370000E949A020F900F900F90DF91CF910895F5
:10038000CF93DF93DC01FB0160E070E080E0C1E02F
:10039000D0E08417C9F09191BE01092E02C0660F0A
:1003A000771F0A94E2F76F5F7F4F769567956A0F24
:1003B0007B1F02C0769567959A95E2F76F3F7105AE
:1003C00019F010F08F5FE5CFF9016083DF91CF91D5
:1003D0000895E1E6F0E080E880831082A89584B774
:1003E000877F84BFE0E6F0E08081886180831082AF
:1003F00008951092800084E080938100109285001F
:100400001092840008958091840090918500089551
:10041000AC0180918400909185009C01241B350BD8
:10042000283E3340B0F70895209184003091850034
:10043000820F931F0C940802CF93DF931F92CDB7C6
:10044000DEB79E012F5F3F4F45E060E573E00E94FD
:10045000C00191E0980F90933A019981915097BD16
:1004600018BC95B5977039F095B520913A01277071
:10047000987F922B95BD298130E0E82FF0E0E05B7A
:10048000FC4FC901008002C0880F991F0A94E2F74F
:100490000F90DF91CF91089585B3897F85BB85B596
:1004A00090913A019770887F892B85BD089585B515
:1004B000887F85BD089585B382FB882780F90895DC
:1004C000009719F0019741F0089584B58F736295F4
:1004D000660F660F607C05C084B563706295607FAF
:1004E0008F7C682B64BD0895009741F0019759F403
:1004F00084B58E7F84BD84B5826002C084B58C7F54
:1005000084BD81E0089580E0089514BC15BC16BC3C
:1005100018BC84B58E7F84BD84B5826084BD81E0C3
:1005200008959C01215031093093CD008150809372
:10053000CC000895CF93DF93EC01888199810E94CC
:1005400091028A819BEF980F943008F088E098E13F
:100550009093C9008550880F8093CA0081E0DF9195
:10056000CF9108958091C800881F8827881F08951B
:100570008091C80085FB882780F908958091C80084
:1005800086FB882780F90895CF93C82F0E94B80270
:100590008823E1F38091C80080648093C800C093F1
:1005A000CE00CF9108958091C80087FFFCCF809145
:1005B000CE000895CF93DF93EC018991882319F041
:1005C0000E94C402FACFDF91CF910895853098F44C
:1005D000673088F421E030E001C0220F6A95EAF725
:1005E000E82FF0E0E553FC4F922F9095808189230E
:1005F0004111822B80830895853080F4673070F438
:1006000021E030E001C0220F6A95EAF7E82FF0E020
:10061000E553FC4F8081282381E009F480E00895B0
:100620006091CA03E62FF0E0E553FC4F80810E9401
:100630005E038091CA038F5F853018F48093CA03EC
:1006400008951092CA030895EBECF3E01082118232
:1006500012821382148208950E943C030C94240396
:100660009C01FC01FF2784A1832B84A395A1892FE2
:10067000832B85A381E00895CF93DF93CFE5D3E06B
:10068000899199910E94300383E0CD36D807C1F754
:1006900083E090E40E94300380E090E80E94300301
:1006A00083E090E10E94300383E090E80E943003F1
:1006B00083E090E2DF91CF910C943003E091D0037E
:1006C000F0E0EE0FFF1FEB5AFC4F20813181F90162
:1006D000FF2795A1932B95A3EFE5F3E097E0208109
:1006E0003181D901BB2795962C91959780FF03C046
:1006F0003095232301C0232B95962C9386959150FA
:1007000032969111ECCFE62FF0E0EE0FFF1FEB5A7F
:10071000FC4F80819181FC01FF2785A19095892361
:1007200085A36093D00308956230710519F170F4C8
:100730006130710559F5FC01FF2724A1392F30954F
:10074000922F932394A385A183231DC06330710549
:1007500041F064307105D1F4FC01FF2784A1892B9D
:100760000FC0FC01FF2784A1892B84A385A190954C
:10077000892309C0FC01FF2784A1292F209582230A
:1007800084A385A1892B85A381E0089580E0089545
:10079000E82FF0E0EE0FFF1FEF52FC4F808188231F
:1007A00021F0918181E0892702C080E090E0817092
:1007B0000895E82FF0E0EE0FFF1FEF52FC4F80810D
:1007C000811102C0818102C080E090E081700895B3
:1007D000E82FF0E0EE0FFF1FEF52FC4F80810895ED
:1007E000E82FF0E0EE0FFF1FEF52FC4F908181E009
:1007F000892708957F928F929F92AF92BF92CF9256
:10080000DF92EF92FF920F931F93CF93DF93C1ED8F
:10081000D3E05DE6C52E53E0D52E66E0762E8881C6
:100820008983F601019111916F015801BB24F501F3
:1008300024A1E12EFF2485A190E08E219F2130E0AC
:100840002E213F21232B31F0892B51F433E0832ECD
:10085000912C0DC0892B41F488248394912C07C0DE
:1008600094E0892E912C03C082E0882E912C64E0C4
:1008700070E0C8010E94940362E070E0C8010E9429
:100880009403872D8A95F1F7F50183A190E0E82282
:10089000F92281E0EF2809F080E08883B401C801E3
:1008A0000E9494032296F3E0CB3DDF0709F0B7CF17
:1008B000DF91CF911F910F91FF90EF90DF90CF903C
:1008C000BF90AF909F908F907F900895089500976C
:1008D00089F0FC012381621B67FD09C0062E000C14
:1008E000770B248130E081E0621773070CF080E021
:1008F0008170089580E00895CF93DF93FC01892BE8
:1009000079F18181481760F59281291748F5938123
:10091000A62FA91BA7FD24C00A2E000CBB0BC48167
:10092000D0E0AC17BD07E4F4622F0E94AF07480F78
:10093000858190E0BD010E94B8070696242F269578
:1009400026952695E80FF91FE20FF11D808190E0B2
:10095000477002C0959587954A95E2F7817001C06E
:1009600080E0DF91CF910895CF93DF93EC010E9457
:10097000F9019E0140E050E062E17AE780E090E01A
:100980000E94F1073093DE032093DD03DF91CF91C6
:1009900008958091DB039091DC030E94080220916E
:1009A000DB033091DC038091DD039091DE03820F45
:1009B000931F9093DC038093DB030895692F0C94BD
:1009C000FC0241E0611101C040E0692F0C94E60295
:1009D0000C94E1045F926F927F928F929F92AF92FC
:1009E000BF92CF92DF92EF92FF920F931F93CF931C
:1009F000DF93562E872E942E5C01E62EF72EC62FFF
:100A0000660FDD0BC81BD10987FDD395072F770F24
:100A1000110B091B110997FD1395D7FF03C077240C
:100A20007A9402C07724739417FF03C066246A94F3
:100A300002C066246394D7FF03C0D195C195D10944
:100A400017FF03C0119501951109C017D107A4F034
:100A50006E01D594C794F92EA51411F1692D8A2D34
:100A60009F2D0E94E104C01AD10AD7FE03C0CC0E0C
:100A7000DD1EF60CA70CF0CF6801D594C794E82EC4
:100A8000B81471F0692D8E2D9B2D0E94E104CC1AB3
:100A9000DD0AD7FE03C0C00ED11EE70CB60CF0CFA6
:100AA000692DC701DF91CF911F910F91FF90EF90BA
:100AB000DF90CF90BF90AF909F908F907F906F907E
:100AC0005F900C94E104FF920F931F93CF93DF93F9
:100AD000D82FF92E162FC72F042F792F0E94EA0442
:100AE000402F6D2F7C2F8D2F9F2D0E94EA04402FC9
:100AF000612F7C2F812F9F2D0E94EA04402F612FB0
:100B00007C2F8D2F9C2F0E94EA04DF91CF911F91A3
:100B10000F91FF9008950E942403EBE3F1E0118A06
:100B200014860895DF92EF92FF920F931F93CF9355
:100B3000DF93D82E7B01162F0F2D80913D019091D0
:100B40003E01D0E0019799F50F2D0D1BE091430177
:100B5000F09144018181C0E0D817B8F4809143013D
:100B600090914401FC012281C21768F42C2F4D2F73
:100B70006D2D0E947C04682F8E2D8C0F902F0E946B
:100B8000E104CF5FEBCFDF5FDFCFE0914301F09176
:100B900044018281C81740F460E08E2D8C0F902FA5
:100BA0000E94E104CF5FF1CF015030C0DF5F1E2D06
:100BB0001D0FE0914301F09144018181C0E0D817FD
:100BC000A8F48091430190914401FC012281C21755
:100BD00068F72C2F4D2F6D2D0E947C04682F812FDC
:100BE0009F2D9C0F0E94E104CF5FEBCFE09143016A
:100BF000F09144018281C81740F460E0812F9F2D5D
:100C00009C0F0E94E104CF5FF1CF1F5F812F902FD7
:100C1000DF91CF911F910F91FF90EF90DF9008959A
:100C20000F931F93CF938C01C0E0F80181918F0146
:100C3000882341F00E949205BC01CF5F853014F4F7
:100C400077FFF3CF8C2FCF911F910F9108950F93C2
:100C50001F93CF93DF931092470140934801109266
:100C60004B0100914301109144010115110509F454
:100C700049C09B01EC01F8018181609141017091B3
:100C8000420190E00E94B807BC018091450190911B
:100C900046010E94C907CB016AE070E00E94B807D4
:100CA00090934A01809349013093400120933F0182
:100CB00040E250E0BE018CE491E00E943208809155
:100CC0003B0190913C010197E9F4FE010190002065
:100CD000E9F73197BF016C1B7D0BF80181818F5FB4
:100CE0000E94AF07815020913D0130913E0121309B
:100CF000310511F095E001C097E0981718F48EEFD8
:100D000080934B01DF91CF911F910F910895209116
:100D10003D0130913E012130310511F070E001C0FC
:100D200076E04FEF60E00E942706089590E09093F0
:100D3000420180934101089590933C0180933B01CF
:100D4000089590933E0180933D010895909344014E
:100D50008093430108958091DF039091E003019611
:100D60009093E0038093DF032091490130914A0181
:100D70008217930708F469C01092E0031092DF0312
:100D8000E0914701F0E0E55CFE4F818981110AC0E6
:100D900080914801823008F458C081508093480106
:100DA000109247018091470190E0FC01E55CFE4F05
:100DB0002189222309F449C040913B0150913C0113
:100DC00020914B014115510521F04130510599F019
:100DD00024C0211122C060913F0170914001845BC9
:100DE0009E4F0E94100690E0019790914701890F55
:100DF0008093470112C060913F0170914001409182
:100E00003D0150913E014130510511F4720F01C076
:100E1000621B845B9E4F0E94100680914B018F5F86
:100E200080934B01082E000C990BE0914301F09147
:100E30004401218130E0281739073CF410924B011E
:100E4000809147018F5F809347010C941003CF93EB
:100E5000DF93CBE3D1E09B878A870E942C0384E158
:100E600090E09F838E83DF91CF910C948B059B0143
:100E700066E070E00E94B807820F931F089566E055
:100E800070E00E94DD07CB01089566E070E00E94EB
:100E9000DD070895811105C0662311F0429A089577
:100EA000429808953A9A429A08950E94E9010E9450
:100EB00066040E9493010E94520786E292E00E941B
:100EC000B40486E292E00E9427078CE691E00E943B
:100ED000A6068AE00E94960681E090E00E949C06A9
:100EE00084E893E00E9487060E94C9040E94AB0632
:100EF0000E94FA030E9410038091C8039091C903D5
:100F00008130910539F018F00297E9F0EDCF0E9499
:100F10001301EACF80E00E94C80381110E945900AA
:100F200082E00E94C80381110E947C0084E00E943C
:100F3000C80381110E949E000E9477018823A1F2BC
:100F40000E94D600D1CF84E00E94C803882361F2BA
:100F500080E090E00E949C060E945601C5CF0024CC
:100F600080FD060E660F11F08695D1F7802D08954D
:100F70000024552704C0080E591F880F991F009799
:100F800029F076956795B8F37105B9F7802D952FFF
:100F90000895AA1BBB1B51E107C0AA1FBB1FA617C0
:100FA000B70710F0A61BB70B881F991F5A95A9F712
:100FB00080959095BC01CD01089597FB072E16F4FE
:100FC000009407D077FD09D00E94C90707FC05D01F
:100FD0003EF4909581959F4F0895709561957F4F50
:100FE0000895052E97FB1EF400940E94080857FDF3
:100FF00007D00E94100807FC03D04EF40C94080898
:1010000050954095309521953F4F4F4F5F4F089534
:1010100090958095709561957F4F8F4F9F4F089564
:10102000A1E21A2EAA1BBB1BFD010DC0AA1FBB1FEC
:10103000EE1FFF1FA217B307E407F50720F0A21B5E
:10104000B30BE40BF50B661F771F881F991F1A94CB
:1010500069F760957095809590959B01AC01BD01F5
:10106000CF010895FB01DC014150504048F0019050
:101070000D920020C9F701C01D9241505040E0F789
:061080000895F894FFCF73
:101086000100030093039503970399039B039D03B4
:101096009F03A103A303A503A703A903AB03AD0302
:1010A600AF03B103B3038203B5039103B703B903D7
:1010B600BB03BD03BF03C103C3030100000000005F
:1010C6000014000000000000000000000000000006
:1010D600000000000000000000000000000000000A
:1010E60000000000000000000000000001050720CD
:1010F6005F050000000000C6186380014A29000051
:10110600004A7DF59502C417471F01632222320665
:1011160026155193058608000000880821080282DA
:1011260020848800805457090080904F08000000F2
:1011360060880000800F00000000008C0100222261
:1011460002002EE63AA303C4104288032E4244C48A
:10115600072E4207A30388A9F411023F8407A303BD
:101166002E8617A3033F424408012E4617A3032EDB
:10117600460FA303C018600C00C01860880088885A
:10118600200802007CF0010082208888002E42445C
:1011960000012E425BAB0344C51F63042FC617E351
:1011A600032E8610A2032FC618E3033F8417C20737
:1011B6003F841742002E861EA30731C61F63048E86
:1011C60010428803104218A303319551520421841A
:1011D60010C20771D71A630471D61C63042EC61891
:1011E600A3032FC61742002EC65893052FC61763B2
:1011F600042E0607A3039F1042080131C618A30355
:1012060031C618150131C65AAB02312AA262043121
:101216002A4208011F2222C207278410C201200881
:101226008220000E21849003444500000000000047
:10123600C00782200000000038E8A30721B419E3A4
:101246000300B810A20310DA1CA30700B8F8830342
:101256004C8A238400C0C7E8A10321B4196304049F
:1012660018428803083084920121A4324A0286106B
:1012760042880300AC5A630400B419630400B8182A
:10128600A30300BCF8420000D8EC210400B41942C4
:101296000000B8E0E003421C21240300C418B30593
:1012A60000C418150100C45AAB020044455404009A
:1012B600C4E8A103007C44C40788104108028410D6
:1012C600420801821044880000888A0000D0000885
:1012D600000306080A034000800310038003200071
:1012E60040002000100008000400020001038003F3
:1012F600400320008003104C4F5345520057494E7F
:101306004E455200505245535320544F205354419A
:101316005254004100420043004400450046004745
:1013260000480049004A004B004C004D004E004F5B
:101336000050005100530055005600570058005900
:06134600005A0030000017
:00000001FF
