:100000000C943A000C9457000C9457000C94570031
:100010000C9457000C9457000C9457000C94570004
:100020000C9457000C9457000C9457000C945700F4
:100030000C9457000C9457000C9457000C945700E4
:100040000C9457000C9457000C9457000C945700D4
:100050000C9457000C9457000C9457000C945700C4
:100060000C9457000C9457000C9457000C945700B4
:100070000C94570011241FBECFEFD4E0DEBFCDBFDC
:1000800013E0A0E0B1E0EEEDFFE002C005900D92BC
:10009000A03BB107D9F723E0A0EBB3E001C01D926C
:1000A000AB3CB207E1F70E94F1060C94ED070C940B
:1000B00000008091B0039091B10320910001309134
:1000C0000101821793078CF48931910574F401962C
:1000D0009093B1038093B003880F991FFC01EE5FEA
:1000E000FE4F808191810C94280608958091B00381
:1000F0009091B1032091000130910101215031090B
:100100008217930774F001979093B1038093B00323
:10011000880F991FFC01EE5FFE4F808191810C9446
:10012000280608952091B0033091B1038091000119
:100130009091010102972817390704F129313105FF
:1001400051F060E080E00E94E6068091B0030E94DA
:100150000D010C942A050E942A0581E090E00E947E
:100160003B0685E793E00E94280682E090E09093AA
:10017000B3038093B20387E50C940D0108950E94A8
:100180000501082E000C990B9093B1038093B003E6
:10019000880F991FFC01EE5FFE4F808191810E94C4
:1001A000280661E080E00E94E6068091B00390910D
:1001B000B10303969093010180930001089584E0B8
:1001C0000E9450038823F1F083E090E090930101B6
:1001D000809300011092B1031092B00381E090E08F
:1001E0009093B3038093B2030E942A05E091B00379
:1001F000F091B103EE0FFF1FEE5FFE4F8081918102
:100200000C94280608950C943A020C945B020C940A
:1002100040020C9446020C944C020E944C020E9434
:1002200046028823E1F38CE291E00197F1F70E9406
:100230003A0281110C94050108950C946202CF9347
:10024000DF9300D00F92CDB7DEB780914B03909132
:100250004C03A0914D0389839A83AB83509A589A9B
:100260000E9410028FE690E00E94A80181E090E0D9
:100270000E94FF0161E070E081E090E00E94EC01EB
:100280000E94D801CE0101960E9422020F900F9089
:100290000F90DF91CF910895CF93DF93EC01D901B7
:1002A000FB0120E030E080E061E070E0841304C0F6
:1002B0002C93DF91CF91089591919B01092E02C05B
:1002C000220F331F0A94E2F72F5F3F4F3695279591
:1002D0002C0F3D1F02C0369527959A95E2F72F3FC8
:1002E000310531F328F38F5FE1CFE1E6F0E080E8FC
:1002F00080831082A89584B7877F84BFE0E6F0E012
:10030000808188618083108208951092800084E04B
:10031000809381001092850010928400089580914E
:1003200084009091850008959C01809184009091B3
:100330008500AC01421B530B483E5340B0F7089573
:100340002091840030918500820F931F0C949401BA
:10035000CF93DF930F92CDB7DEB79E012F5F3F4F54
:1003600045E06EE473E00E944C01E82F81E08E0FBF
:10037000809338018981815087BD18BC85B587700D
:10038000882339F095B5809138018770987F892B43
:1003900085BD898190E0F0E0E25BFC4F208102C0E6
:1003A000880F991F2A95E2F70F90DF91CF9108955A
:1003B00085B3897F85BB95B5809138018770987F1B
:1003C000892B85BD089585B5887F85BD089585B342
:1003D00082FB882780F90895009719F0019751F062
:1003E000089584B58F736295660F660F607C682BE5
:1003F00064BD089584B5629560738F7CF8CF0097D3
:1004000021F0019739F080E0089584B58C7F84BD98
:1004100081E0089584B58E7F84BD84B58260F7CF76
:1004200014BC15BC16BC18BC81E090E00E94FF0112
:1004300081E008959C0101979093CD002150209375
:10044000CC000895CF93DF93EC01888199810E94BD
:100450001A028A819BEF980F943008F088E098E1A7
:100460009093C9008550880F8093CA0081E0DF9186
:10047000CF9108958091C800881F8827881F08950C
:100480008091C80085FB882780F908958091C80075
:1004900086FB882780F90895CF93C82F0E944002D9
:1004A0008823E1F38091C80080648093C800C093E2
:1004B000CE00CF9108958091C80087FFFCCF809136
:1004C000CE000895CF93DF93EC018991811103C091
:1004D000DF91CF9108950E944C02F7CF8530B8F498
:1004E0006730A8F421E030E0F90102C0EE0FFF1FF1
:1004F0006A95E2F7BF01E82FF0E0EB54FC4F862F3E
:1005000080959081892341954623842B808308958B
:10051000853088F4673078F4E82FF0E0EB54FC4F36
:1005200081E090E001C0880F6A95EAF790819823F6
:1005300081E0911101C080E008956091B403E62F3D
:10054000F0E0EB54FC4F80810E94E7028091B403FD
:100550008F5F853008F080E08093B4030895E5EB69
:10056000F3E01082118212821382148208950E9495
:10057000C5020C94AF029C01FC01FF2784A1832BD0
:1005800084A385A1832B85A30895CF93DF93CDE525
:10059000D3E0899199910E94BB0283E0CB36D807C2
:1005A000C1F783E090E40E94BB0280E090E80E94E3
:1005B000BB0283E090E10E94BB0283E090E80E94CE
:1005C000BB0283E090E2DF91CF910C94BB02E091FB
:1005D000BA03F0E0EE0FFF1FED5AFC4F208131818E
:1005E000F901FF2795A1932B95A3ADE5B3E04BE669
:1005F00053E02D913D91F901FF2780FF1BC025A1FC
:10060000932F9095922395A386954A175B0789F7B8
:10061000E62FF0E0EE0FFF1FED5AFC4F8081918135
:10062000FC01FF2725A1892F8095822385A3609354
:10063000BA03089595A1932BE6CF9C016330710511
:1006400061F038F461307105D9F06230710509F15B
:1006500008956430710561F00895F901FF2784A1C0
:10066000832B84A395A1832F8095892385A3089547
:10067000F901FF2784A1832B84A385A1832BF6CFC7
:10068000F901FF2794A1832F8095982394A395A126
:10069000ECCFF901FF2794A1832F80958923ECCF1C
:1006A000E82FF0E0EE0FFF1FE554FC4F8081882318
:1006B00029F0818191E089278170089580E090E0A0
:1006C000FBCFE82FF0E0EE0FFF1FE554FC4F8081D9
:1006D000811103C081818170089580E090E0FBCF9B
:1006E000E82FF0E0EE0FFF1FE554FC4F80810895E6
:1006F000E82FF0E0EE0FFF1FE554FC4F808191E002
:10070000892708958F929F92AF92BF92CF92DF92E6
:10071000EF92FF920F931F93CF93DF9300D00F922E
:10072000CDB7DEB78BEB93E09B838A839BE6C92E24
:1007300093E0D92E26E0922EEA81FB81808181838D
:10074000F601019111916F015801BB24F50124A11B
:10075000E12EFF2485A190E08E219F2130E02E2103
:100760003F21232B09F43DC0892B09F43FC0F4E05D
:10077000F983812C64E070E0C8010E941D0362E0EF
:1007800070E0C8010E941D03892D8A95F1F7F501DB
:1007900083A190E08E219F2121E0892B09F020E0A8
:1007A000EA81FB8120836981782DC8010E941D03A5
:1007B0008A819B8102969B838A83855C934009F0A2
:1007C000BBCF0F900F900F90DF91CF911F910F91A2
:1007D000FF90EF90DF90CF90BF90AF909F908F9061
:1007E0000895892B31F421E02983C3CF83E08983E5
:1007F000C0CF92E09983BDCF0895FC01892B59F0B9
:100800008381681B67FD04C081E09481691708F04B
:1008100080E08170089580E00895FC01A62F622F8A
:10082000892B51F18181481738F59281291720F5DC
:100830009381A91BA7FD20C0B0E0248130E0A2175E
:10084000B307D4F40E945B07480F858190E0BD0197
:100850000E946407242F269526952695E80FF91FF8
:10086000E20FF11D868190E0477002C09595879553
:100870004A95E2F78170089580E00895CF93DF9361
:10088000EC010E9485019E0140E050E062E17AE7C0
:1008900080E090E00E949D073093C8032093C70337
:1008A000DF91CF9108958091C5039091C6030E9476
:1008B00094018091C5039091C6032091C7033091A4
:1008C000C803820F931F9093C6038093C5030895B6
:1008D000692F0C94880241E0611101C040E0692F4A
:1008E0000C946E020C946B045F926F927F928F92C5
:1008F0009F92AF92BF92CF92DF92EF92FF920F93AF
:100900001F93CF93DF93862E772E942E682E592E29
:10091000B62EA72E062E000C770BE82F082E000C03
:10092000FF0B8B010E1B1F0B272D072C000C330B0D
:10093000492F092E000C550BE901C41BD50B17FFDD
:1009400059C0DD24DA94D7FD02C0DD24D3948F0191
:10095000061B170BCC24CA94D7FF03C0EA01C21BA5
:10096000D30B0C171D076CF1780117FF03C08FEF35
:10097000E81AF80AF594E794A92E681014C0692DB6
:100980008B2D9A2DDF91CF911F910F91FF90EF90BA
:10099000DF90CF90BF90AF909F908F907F906F909F
:1009A0005F900C946B04692D862D9A2D0E946B0428
:1009B000EC1AFD0AF7FE03C0E00EF11EAD0C6C0C44
:1009C000DCCF7E01D7FF03C09FEFE91AF90AF59447
:1009D000E794B82E571499F2692D8B2D952D0E940E
:1009E0006B04E01AF10AF7FE03C0EC0EFD1EBC0C0E
:1009F0005D0CF0CFCC24C394DD24DA94D7FDAECFC8
:100A0000DD24D394AECFFF920F931F93CF93DF9348
:100A1000D82FF92E162FC72F042F792F0E94740478
:100A2000402F6D2F7C2F8D2F9F2D0E947404402FFF
:100A3000612F7C2F812F9F2D0E947404402F612FE6
:100A40007C2F8D2F9C2FDF91CF911F910F91FF90C5
:100A50000C9474040E94AF02E9E3F1E0118A148659
:100A60000895DF92EF92FF920F931F93CF93DF933E
:100A7000D82E7B01C62F0F2D80913B0190913C0118
:100A8000D0E0019751F1CE2DCD0FE0914101F091D1
:100A900042018181D81708F45CC0D0E0E0914101A7
:100AA000F09142018281D81708F455C0CF5F27C06A
:100AB000212F4D2F6D2D0E940D04682F8E2D810F3B
:100AC000902F0E946B041F5F809141019091420121
:100AD000FC012281121760F3DF5F0F2D0D1BE091E7
:100AE0004101F09142018181D81798F0D0E0E09166
:100AF0004101F09142018281D81768F001508C2F9A
:100B0000902FDF91CF911F910F91FF90EF90DF9089
:100B1000089510E0D9CF60E08E2D8D0F902F0E94A8
:100B20006B04DF5FE4CF212F4D2F6D2D0E940D044C
:100B3000682F8C2F9F2D910F0E946B041F5F809157
:100B4000410190914201FC012281121760F3DF5FA5
:100B50009ACF10E0F4CF60E08C2F9F2D9D0F0E9464
:100B60006B04DF5F9BCF1F93CF93DF93EC0110E00B
:100B70008991882341F00E943105BC011F5F8530B7
:100B800014F477FFF5CF812FDF91CF911F91089556
:100B90000F931F93CF93DF93EC01362F272F1092E3
:100BA0004501409346011092490100914101109185
:100BB00042010115110509F446C0F80181816091D7
:100BC0003F017091400190E00E946407BC01809158
:100BD0004301909144010E947507CB016AE070E0E7
:100BE0000E946407909348018093470130933D0130
:100BF00020933E0140E250E0BE018AE491E00E9471
:100C0000DE078091390190913A010197E1F4FE01EC
:100C100001900020E9F73197BF016C1B7D0BF801B3
:100C200081818F5F0E945B07815020913B01309151
:100C30003C0197E02130310509F095E0981718F450
:100C40008EEF80934901DF91CF911F910F9108950D
:100C500020913B0130913C0176E02130310509F0D3
:100C600070E04FEF60E00C94C80590E09093400175
:100C700080933F01089590933A018093390108953C
:100C800090933C0180933B0108959093420180939F
:100C9000410108958091C9039091CA0301969093F0
:100CA000CA038093C90320914701309148018217FC
:100CB000930708F442C01092CA031092C903E0914E
:100CC0004501F0E0E75CFE4F8189811109C0809108
:100CD0004601823090F18150809346011092450187
:100CE0008091450190E0FC01E75CFE4F21892223C1
:100CF00021F14091390150913A012091490141156A
:100D00005105E9F04130510559F1809149018F5F5A
:100D100080934901082E000C990BE0914101F0915C
:100D20004201218130E0281739073CF41092490133
:100D3000809145018F5F809345010C949D022111A4
:100D4000E4CF60913D0170913E01865B9E4F0E9411
:100D5000B305909145019150980F90934501D5CFDF
:100D600060913D0170913E0140913B0150913C01E9
:100D70004130510531F4720F865B9E4F0E94B305DE
:100D8000C4CF621BF9CFCF93DF93C9E3D1E09B8738
:100D90008A870E94B70284E190E09F838E83DF916F
:100DA000CF910C942A059B0166E070E00E946407D5
:100DB000820F931F089566E070E00E948907CB01BF
:100DC000089566E070E00E9489070895811105C0CA
:100DD000662311F0429A0895429808953A9A429AE9
:100DE00008950E9475010E94FC030E941F010E9449
:100DF000EE0686E292E00E943E0486E292E00E94C5
:100E0000C3068AE691E00E9445068AE00E94350604
:100E100080913601909137010E9428060DE011E083
:100E2000C3E0D0E00E9453040E944A060E9482035D
:100E30000E949D028091B2039091B303813091058D
:100E400021F0B0F1029719F1EDCF80E00E9450033C
:100E500081110E94590082E00E94500381110E947A
:100E6000760084E00E94500381110E9492000E944B
:100E700003018823B9F283E00B37180729F48DE0CA
:100E800091E00E942806CECF0E94BF00CBCF84E025
:100E90000E945003882331F280E090E00E943B06DC
:100EA000D0930101C09300011092B1031092B003DE
:100EB0000E94DF00B7CF002480FD060E660F11F000
:100EC0008695D1F7802D08950024552704C0080E7B
:100ED000591F880F991F009729F076956795B8F3E9
:100EE0007105B9F7802D952F0895AA1BBB1B51E101
:100EF00007C0AA1FBB1FA617B70710F0A61BB70B8A
:100F0000881F991F5A95A9F780959095BC01CD012E
:100F1000089597FB072E16F4009407D077FD09D0AB
:100F20000E94750707FC05D03EF4909581959F4F70
:100F30000895709561957F4F0895052E97FB1EF4D7
:100F400000940E94B40757FD07D00E94BC0707FC1D
:100F500003D04EF40C94B4075095409530952195EC
:100F60003F4F4F4F5F4F08959095809570956195D5
:100F70007F4F8F4F9F4F0895A1E21A2EAA1BBB1BD4
:100F8000FD010DC0AA1FBB1FEE1FFF1FA217B30755
:100F9000E407F50720F0A21BB30BE40BF50B661F6B
:100FA000771F881F991F1A9469F76095709580952F
:100FB00090959B01AC01BD01CF010895FB01DC01BF
:100FC0004150504048F001900D920020C9F701C0F7
:0E0FD0001D9241505040E0F70895F894FFCF75
:100FDE0003007D037F038103830385038703890356
:100FEE008B038D038F03910393039503970399034B
:100FFE009B039D0379039F03A103A303A5037B0317
:10100E00A703A903AB03AD03010000000000001409
:10101E0000000000000000000000000000000000C2
:10102E0000000000000000000000000000000000B2
:10103E0000000000000000000000010507205F0511
:10104E000000000000C6186380014A290000004A13
:10105E007DF59502C417471F01632222320626151D
:10106E00519305860800000088082108028220841A
:10107E008800805457090080904F08000000608857
:10108E000000800F00000000008C010022220200F0
:10109E002EE63AA303C4104288032E4244C4072E00
:1010AE004207A30388A9F411023F8407A3032E86E7
:1010BE0017A3033F424408012E4617A3032E460FE3
:1010CE00A303C018600C00C0186088008888200830
:1010DE0002007CF0010082208888002E424400012C
:1010EE002E425BAB0344C51F63042FC617E3032ECA
:1010FE008610A2032FC618E3033F8417C2073F844E
:10110E001742002E861EA30731C61F63048E10429F
:10111E008803104218A3033195515204218410C242
:10112E000771D71A630471D61C63042EC618A30365
:10113E002FC61742002EC65893052FC61763042ECE
:10114E000607A3039F1042080131C618A30331C638
:10115E0018150131C65AAB02312AA26204312A4255
:10116E0008011F2222C207278410C20120088220F4
:10117E00000E218490034445000000000000C007CB
:10118E0082200000000038E8A30721B419E3030011
:10119E00B810A20310DA1CA30700B8F883034C8A18
:1011AE00238400C0C7E8A10321B4196304041842C4
:1011BE008803083084920121A4324A0286104288A4
:1011CE000300AC5A630400B419630400B818A303F7
:1011DE0000BCF8420000D8EC210400B41942000013
:1011EE00B8E0E003421C21240300C418B30500C478
:1011FE0018150100C45AAB02004445540400C4E85B
:10120E00A103007C44C407881041080284104208E0
:10121E0001821044880000888A0000D00008000374
:10122E0006080A03400080031003800320004000DC
:10123E002000100008000400020001038003400398
:10124E0020008003104C4F5345520057004100427E
:10125E000043004400450046004700480049004A4C
:10126E00004B004C004D004E004F005000510053FB
:10127E0000540055005600580059005A0030000026
:00000001FF
