:100000000C943A000C9457000C9457000C94570031
:100010000C9457000C9457000C9457000C94570004
:100020000C9457000C9457000C9457000C945700F4
:100030000C9457000C9457000C9457000C945700E4
:100040000C9457000C9457000C9457000C945700D4
:100050000C9457000C9457000C9457000C945700C4
:100060000C9457000C9457000C9457000C945700B4
:100070000C94570011241FBECFEFD4E0DEBFCDBFDC
:1000800013E0A0E0B1E0EEE4FBE002C005900D92C9
:10009000A433B107D9F723E0A4E3B3E001C01D9274
:1000A000AB34B207E1F70E9401050C94A5050C944E
:1000B0000000CF93DF9300D0CDB7DEB789831A82DB
:1000C000CE0101960E9456040F900F90DF91CF91C0
:1000D0000895E1E6F0E080E880831082A89584B777
:1000E000877F84BFE0E6F0E08081886180831082B2
:1000F00008951092800084E0809381001092850022
:100100001092840008958091840090918500089554
:100110009C018091840090918500AC01421B530B9F
:10012000483E5340B0F708952091840030918500F7
:10013000820F931F0C9488008530B8F46730A8F4C0
:1001400021E030E0F90102C0EE0FFF1F6A95E2F7EF
:10015000BF01E82FF0E0EB5CFC4F862F809590818B
:10016000892341954623842B80830895853088F424
:10017000673078F4E82FF0E0EB5CFC4F81E090E032
:1001800001C0880F6A95EAF79081982381E0911168
:1001900001C080E0089560913403E62FF0E0EB5C4D
:1001A000FC4F80810E941501809134038F5F853060
:1001B00008F080E0809334030895E5E3F3E01082D3
:1001C000118212821382148208950E94F3000C940B
:1001D000DD009C01FC01FF2784A1832B84A385A162
:1001E000832B85A30895CF93DF93CCE1D3E089914E
:1001F00099910E94E90083E0CA32D807C1F783E0F1
:1002000090E40E94E90080E090E80E94E90083E029
:1002100090E10E94E90083E090E80E94E90083E019
:1002200090E2DF91CF910C94E900E0913A03F0E085
:10023000EE0FFF1FEE5EFC4F20813181F901FF2799
:1002400095A1932B95A3ACE1B3E04AE253E02D9145
:100250003D91F901FF2780FF1BC025A1932F9095A9
:10026000922395A386954A175B0789F7E62FF0E05E
:10027000EE0FFF1FEE5EFC4F80819181FC01FF2796
:1002800025A1892F8095822385A360933A03089541
:1002900095A1932BE6CF9C016330710561F038F492
:1002A00061307105D9F06230710509F1089564304B
:1002B000710561F00895F901FF2784A1832B84A3C0
:1002C00095A1832F8095892385A30895F901FF27A0
:1002D00084A1832B84A385A1832BF6CFF901FF276B
:1002E00094A1832F8095982394A395A1ECCFF90135
:1002F000FF2794A1832F80958923ECCFE82FF0E08E
:10030000EE0FFF1FE55CFC4F8081882329F081817F
:1003100091E089278170089580E090E0FBCFE82F7D
:10032000F0E0EE0FFF1FE55CFC4F8081811103C000
:1003300081818170089580E090E0FBCFE82FF0E0AC
:10034000EE0FFF1FE55CFC4F80810895E82FF0E081
:10035000EE0FFF1FE55CFC4F808191E08927089537
:100360008F929F92AF92BF92CF92DF92EF92FF92C5
:100370000F931F93CF93DF9300D00F92CDB7DEB7CB
:100380008BE393E09B838A839AE2C92E93E0D92E74
:1003900026E0922EEA81FB8180818183F601019122
:1003A00011916F015801BB24F50124A1E12EFF2416
:1003B00085A190E08E219F2130E02E213F21232B2B
:1003C00009F43DC0892B09F43FC0F4E0F983812C86
:1003D00064E070E0C8010E944B0162E070E0C80177
:1003E0000E944B01892D8A95F1F7F50183A190E0D8
:1003F0008E219F2121E0892B09F020E0EA81FB81F9
:1004000020836981782DC8010E944B018A819B81DC
:1004100002969B838A838554934009F0BBCF0F904B
:100420000F900F90DF91CF911F910F91FF90EF9060
:10043000DF90CF90BF90AF909F908F900895892BC1
:1004400031F421E02983C3CF83E08983C0CF92E0D8
:100450009983BDCF0895FC01892B59F08381681BD6
:1004600067FD04C081E09481691708F080E0817025
:10047000089580E00895FC01A62F622F892B51F189
:100480008181481738F59281291720F59381A91B9E
:10049000A7FD20C0B0E0248130E0A217B307D4F458
:1004A0000E942705480F858190E0BD010E9430051C
:1004B000242F269526952695E80FF91FE20FF11DAA
:1004C000868190E0477002C0959587954A95E2F73E
:1004D0008170089580E00895CF93DF93EC010E942E
:1004E00079009E0140E050E062E17AE780E090E030
:1004F0000E9455053093480320934703DF91CF9125
:10050000089580914503909146030E948800809150
:100510004503909146032091470330914803820F91
:10052000931F90934603809345030895692F0C947D
:10053000B60041E0611101C040E0692F0C949C00BD
:100540000C9499025F926F927F928F929F92AF92DA
:10055000BF92CF92DF92EF92FF920F931F93CF93B0
:10056000DF93862E772E942E682E592EB62EA72E28
:10057000062E000C770BE82F082E000CFF0B8B01CA
:100580000E1B1F0B272D072C000C330B492F092E98
:10059000000C550BE901C41BD50B17FF59C0DD2416
:1005A000DA94D7FD02C0DD24D3948F01061B170B0C
:1005B000CC24CA94D7FF03C0EA01C21BD30B0C178B
:1005C0001D076CF1780117FF03C08FEFE81AF80AD6
:1005D000F594E794A92E681014C0692D8B2D9A2DDF
:1005E000DF91CF911F910F91FF90EF90DF90CF900F
:1005F000BF90AF909F908F907F906F905F900C9482
:100600009902692D862D9A2D0E949902EC1AFD0AF5
:10061000F7FE03C0E00EF11EAD0C6C0CDCCF7E01CA
:10062000D7FF03C09FEFE91AF90AF594E794B82EB3
:10063000571499F2692D8B2D952D0E949902E01A7D
:10064000F10AF7FE03C0EC0EFD1EBC0C5D0CF0CFF2
:10065000CC24C394DD24DA94D7FDAECFDD24D3942B
:10066000AECFFF920F931F93CF93DF93D82FF92E26
:10067000162FC72F042F792F0E94A202402F6D2F13
:100680007C2F8D2F9F2D0E94A202402F612F7C2F47
:10069000812F9F2D0E94A202402F612F7C2F8D2F32
:1006A0009C2FDF91CF911F910F91FF900C94A2028C
:1006B0000E94DD00E0E0F1E0118A14860895DF92E7
:1006C000EF92FF920F931F93CF93DF93D82E7B016E
:1006D000C62F0F2D8091020190910301D0E0019768
:1006E00051F1CE2DCD0FE0910801F09109018181EA
:1006F000D81708F45CC0D0E0E0910801F09109013E
:100700008281D81708F455C0CF5F27C0212F4D2F05
:100710006D2D0E943B02682F8E2D810F902F0E941D
:1007200099021F5F8091080190910901FC012281CB
:10073000121760F3DF5F0F2D0D1BE0910801F091A0
:1007400009018181D81798F0D0E0E0910801F0917B
:1007500009018281D81768F001508C2F902FDF910A
:10076000CF911F910F91FF90EF90DF90089510E0CF
:10077000D9CF60E08E2D8D0F902F0E949902DF5F00
:10078000E4CF212F4D2F6D2D0E943B02682F8C2F1F
:100790009F2D910F0E9499021F5F809108019091F7
:1007A0000901FC012281121760F3DF5F9ACF10E08C
:1007B000F4CF60E08C2F9F2D9D0F0E949902DF5F88
:1007C0009BCF1F93CF93DF93EC0110E08991882397
:1007D00041F00E945F03BC011F5F853014F477FF76
:1007E000F5CF812FDF91CF911F9108950F931F9324
:1007F000CF93DF93EC01362F272F10920C014093FB
:100800000D011092100100910801109109010115CC
:10081000110509F446C0F8018181609106017091CB
:10082000070190E00E943005BC0180910A0190917F
:100830000B010E944105CB016AE070E00E94300587
:1008400090930F0180930E013093040120930501D2
:1008500040E250E0BE0181E191E00E949605809166
:100860000001909101010197E1F4FE010190002047
:10087000E9F73197BF016C1B7D0BF80181818F5F18
:100880000E9427058150209102013091030197E0D9
:100890002130310509F095E0981718F48EEF809318
:1008A0001001DF91CF911F910F91089520910201C6
:1008B0003091030176E02130310509F070E04FEF0F
:1008C00060E00C94F60390E090930701809306019A
:1008D000089590930101809300010895909303017E
:1008E000809302010895909309018093080108956F
:1008F0008091490390914A03019690934A03809313
:10090000490320910E0130910F018217930708F4DB
:1009100042C010924A0310924903E0910C01F0E0AA
:10092000E050FF4F8189811109C080910D01823013
:1009300090F1815080930D0110920C0180910C0177
:1009400090E0FC01E050FF4F2189222321F14091EA
:100950000001509101012091100141155105E9F06C
:100960004130510559F1809110018F5F8093100142
:10097000082E000C990BE0910801F09109012181EA
:1009800030E0281739073CF41092100180910C01D7
:100990008F5F80930C010C94CB002111E4CF609108
:1009A0000401709105018F5E9E4F0E94E1039091BA
:1009B0000C019150980F90930C01D5CF60910401D8
:1009C00070910501409102015091030141305105A0
:1009D00031F4720F8F5E9E4F0E94E103C4CF621B01
:1009E000F9CFCF93DF93C0E0D1E09B878A870E9445
:1009F000E50084E190E09F838E83DF91CF910C949A
:100A000058030E94690084EF91E00E94F10481E3A1
:100A100091E00E9473048AE00E94630484EF91E0F5
:100A20000E946C02C1E40E9481020E9478040E942C
:100A3000B00180E00E947E018111CF5F82E00E94C0
:100A40007E018111C1508C2F0E945900ECCF0024EF
:100A500080FD060E660F11F08695D1F7802D089562
:100A60000024552704C0080E591F880F991F0097AE
:100A700029F076956795B8F37105B9F7802D952F14
:100A80000895AA1BBB1B51E107C0AA1FBB1FA617D5
:100A9000B70710F0A61BB70B881F991F5A95A9F727
:100AA00080959095BC01CD010895052E97FB1EF40D
:100AB00000940E946C0557FD07D00E94740507FC46
:100AC00003D04EF40C946C055095409530952195CB
:100AD0003F4F4F4F5F4F089590958095709561956A
:100AE0007F4F8F4F9F4F0895A1E21A2EAA1BBB1B69
:100AF000FD010DC0AA1FBB1FEE1FFF1FA217B307EA
:100B0000E407F50720F0A21BB30BE40BF50B661FFF
:100B1000771F881F991F1A9469F7609570958095C3
:100B200090959B01AC01BD01CF010895FB01DC0153
:100B30004150504048F001900D920020C9F701C08B
:0E0B40001D9241505040E0F70895F894FFCF09
:100B4E000000000000001400000000000000000083
:100B5E000000000000000000000000000000000087
:100B6E000000000000000000000000000000000077
:100B7E0000010507205F050000000000C618638015
:100B8E00014A290000004A7DF59502C417471F014E
:100B9E00632222320626155193058608000000882E
:100BAE000821080282208488008054570900809012
:100BBE004F0800000060880000800F000000000059
:100BCE008C0100222202002EE63AA303C4104288B2
:100BDE00032E4244C4072E4207A30388A9F4110230
:100BEE003F8407A3032E8617A3033F424408012E1A
:100BFE004617A3032E460FA303C018600C00C0189F
:100C0E006088008888200802007CF001008220881D
:100C1E0088002E424400012E425BAB0344C51F6385
:100C2E00042FC617E3032E8610A2032FC618E30364
:100C3E003F8417C2073F841742002E861EA307313A
:100C4E00C61F63048E10428803104218A303319509
:100C5E00515204218410C20771D71A630471D61C35
:100C6E0063042EC618A3032FC61742002EC6589330
:100C7E00052FC61763042E0607A3039F1042080113
:100C8E0031C618A30331C618150131C65AAB02314D
:100C9E002AA26204312A4208011F2222C207278497
:100CAE0010C20120088220000E21849003444500CA
:100CBE000000000000C00782200000000038E8A3FA
:100CCE000721B419E30300B810A20310DA1CA3071E
:100CDE0000B8F883034C8A238400C0C7E8A103211F
:100CEE00B41963040418428803083084920121A4C5
:100CFE00324A02861042880300AC5A630400B419CB
:100D0E00630400B818A30300BCF8420000D8EC211D
:100D1E000400B419420000B8E0E003421C21240391
:100D2E0000C418B30500C418150100C45AAB020064
:100D3E004445540400C4E8A103007C44C407881051
:100D4E004108028410420801821044880000888AFB
:100D5E0000000340008003100380032000400020A9
:100D6E00001000080004000200010380034003206D
:040D7E0000800310DE
:00000001FF
