:100000000C943A000C9457000C9457000C94570031
:100010000C9457000C9457000C9457000C94570004
:100020000C9457000C9457000C9457000C945700F4
:100030000C9457000C9457000C9457000C945700E4
:100040000C9457000C9457000C9457000C945700D4
:100050000C9457000C9457000C9457000C945700C4
:100060000C9457000C9457000C9457000C945700B4
:100070000C94570011241FBECFEFD4E0DEBFCDBFDC
:1000800013E0A0E0B1E0EEE5F9E002C005900D92CA
:10009000A033B107D9F723E0A0E3B3E001C01D927C
:1000A000AD33B207E1F70E9411040C94AD040C9437
:1000B0000000E1E6F0E080E880831082A89584B734
:1000C000877F84BFE0E6F0E08081886180831082D2
:1000D00008951092800084E0809381001092850042
:1000E0001092840008958091840090918500089575
:1000F0009C018091840090918500AC01421B530BC0
:10010000483E5340B0F70895209184003091850017
:10011000820F931F0C9478008530B8F46730A8F4F0
:1001200021E030E0F90102C0EE0FFF1F6A95E2F70F
:10013000BF01E82FF0E0EF5CFC4F862F80959081A7
:10014000892341954623842B80830895853088F444
:10015000673078F4E82FF0E0EF5CFC4F81E090E04E
:1001600001C0880F6A95EAF79081982381E0911188
:1001700001C080E0089560913003E62FF0E0EF5C6D
:10018000FC4F80810E940501809130038F5F853094
:1001900008F080E0809330030895E1E3F3E01082FB
:1001A000118212821382148208950E94E3000C943B
:1001B000CD009C01FC01FF2784A1832B84A385A192
:1001C000832B85A30895CF93DF93CCE1D3E089916E
:1001D00099910E94D90083E0CA32D807C1F783E021
:1001E00090E40E94D90080E090E80E94D90083E06A
:1001F00090E10E94D90083E090E80E94D90083E05A
:1002000090E2DF91CF910C94D900E0913603F0E0B9
:10021000EE0FFF1FEE5EFC4F20813181F901FF27B9
:1002200095A1932B95A3ACE1B3E04AE253E02D9165
:100230003D91F901FF2780FF1BC025A1932F9095C9
:10024000922395A386954A175B0789F7E62FF0E07E
:10025000EE0FFF1FEE5EFC4F80819181FC01FF27B6
:1002600025A1892F8095822385A360933603089565
:1002700095A1932BE6CFFC01892B59F08381681B54
:1002800067FD04C081E09481691708F080E0817007
:10029000089580E00895FC01A62F622F892B51F16B
:1002A0008181481738F59281291720F59381A91B80
:1002B000A7FD20C0B0E0248130E0A217B307D4F43A
:1002C0000E942F04480F858190E0BD010E943804F0
:1002D000242F269526952695E80FF91FE20FF11D8C
:1002E000868190E0477002C0959587954A95E2F720
:1002F0008170089580E00895CF93DF93EC010E9410
:1003000069009E0140E050E062E17AE780E090E021
:100310000E945D0430933A0320933903DF91CF911B
:10032000089580913703909138030E94780080915E
:100330003703909138032091390330913A03820FAB
:10034000931F90933803809337030895692F0C947B
:10035000A60041E0611101C040E0692F0C948C00BF
:100360000C94A9015F926F927F928F929F92AF92AD
:10037000BF92CF92DF92EF92FF920F931F93CF9392
:10038000DF93862E772E942E682E592EB62EA72E0A
:10039000062E000C770BE82F082E000CFF0B8B01AC
:1003A0000E1B1F0B272D072C000C330B492F092E7A
:1003B000000C550BE901C41BD50B17FF59C0DD24F8
:1003C000DA94D7FD02C0DD24D3948F01061B170BEE
:1003D000CC24CA94D7FF03C0EA01C21BD30B0C176D
:1003E0001D076CF1780117FF03C08FEFE81AF80AB8
:1003F000F594E794A92E681014C0692D8B2D9A2DC1
:10040000DF91CF911F910F91FF90EF90DF90CF90F0
:10041000BF90AF909F908F907F906F905F900C9463
:10042000A901692D862D9A2D0E94A901EC1AFD0AB9
:10043000F7FE03C0E00EF11EAD0C6C0CDCCF7E01AC
:10044000D7FF03C09FEFE91AF90AF594E794B82E95
:10045000571499F2692D8B2D952D0E94A901E01A50
:10046000F10AF7FE03C0EC0EFD1EBC0C5D0CF0CFD4
:10047000CC24C394DD24DA94D7FDAECFDD24D3940D
:10048000AECFFF920F931F93CF93DF93D82FF92E08
:10049000162FC72F042F792F0E94B201402F6D2FE6
:1004A0007C2F8D2F9F2D0E94B201402F612F7C2F1A
:1004B000812F9F2D0E94B201402F612F7C2F8D2F05
:1004C0009C2FDF91CF911F910F91FF900C94B2015F
:1004D0000E94CD00E0E0F1E0118A14860895DF92D9
:1004E000EF92FF920F931F93CF93DF93D82E7B0150
:1004F000C62F0F2D8091020190910301D0E001974A
:1005000051F1CE2DCD0FE0910801F09109018181CB
:10051000D81708F45CC0D0E0E0910801F09109011F
:100520008281D81708F455C0CF5F27C0212F4D2FE7
:100530006D2D0E944B01682F8E2D810F902F0E94F0
:10054000A9011F5F8091080190910901FC0122819E
:10055000121760F3DF5F0F2D0D1BE0910801F09182
:1005600009018181D81798F0D0E0E0910801F0915D
:1005700009018281D81768F001508C2F902FDF91EC
:10058000CF911F910F91FF90EF90DF90089510E0B1
:10059000D9CF60E08E2D8D0F902F0E94A901DF5FD3
:1005A000E4CF212F4D2F6D2D0E944B01682F8C2FF2
:1005B0009F2D910F0E94A9011F5F809108019091CA
:1005C0000901FC012281121760F3DF5F9ACF10E06E
:1005D000F4CF60E08C2F9F2D9D0F0E94A901DF5F5B
:1005E0009BCF1F93CF93DF93EC0110E08991882379
:1005F00041F00E946F02BC011F5F853014F477FF49
:10060000F5CF812FDF91CF911F9108950F931F9305
:10061000CF93DF93EC01362F272F10920C014093DC
:100620000D011092100100910801109109010115AE
:10063000110509F446C0F8018181609106017091AD
:10064000070190E00E943804BC0180910A0190915A
:100650000B010E944904CB016AE070E00E9438045B
:1006600090930F0180930E013093040120930501B4
:1006700040E250E0BE0181E191E00E949E04809141
:100680000001909101010197E1F4FE010190002029
:10069000E9F73197BF016C1B7D0BF80181818F5FFA
:1006A0000E942F048150209102013091030197E0B4
:1006B0002130310509F095E0981718F48EEF8093FA
:1006C0001001DF91CF911F910F91089520910201A8
:1006D0003091030176E02130310509F070E04FEFF1
:1006E00060E00C94060390E090930701809306016C
:1006F0000895909301018093000108959093030160
:100700008093020108959093090180930801089550
:1007100080913B0390913C03019690933C0380931E
:100720003B0320910E0130910F018217930708F4CB
:1007300042C010923C0310923B03E0910C01F0E0A8
:10074000E050FF4F8189811109C080910D018230F5
:1007500090F1815080930D0110920C0180910C0159
:1007600090E0FC01E050FF4F2189222321F14091CC
:100770000001509101012091100141155105E9F04E
:100780004130510559F1809110018F5F8093100124
:10079000082E000C990BE0910801F09109012181CC
:1007A00030E0281739073CF41092100180910C01B9
:1007B0008F5F80930C010C94BB002111E4CF6091FA
:1007C0000401709105018F5E9E4F0E94F10290918D
:1007D0000C019150980F90930C01D5CF60910401BA
:1007E0007091050140910201509103014130510582
:1007F00031F4720F8F5E9E4F0E94F102C4CF621BD4
:10080000F9CFCF93DF93C0E0D1E09B878A870E9426
:10081000D50084E190E09F838E83DF91CF910C948B
:1008200068020E94590084EF91E00E94010481E374
:1008300091E00E9483038AE00E94730384EF91E0B9
:100840000E947C0181E090E00E9479038AE293E0BB
:100850000E9466030E9491010E948803FBCF00243E
:1008600080FD060E660F11F08695D1F7802D089554
:100870000024552704C0080E591F880F991F0097A0
:1008800029F076956795B8F37105B9F7802D952F06
:100890000895AA1BBB1B51E107C0AA1FBB1FA617C7
:1008A000B70710F0A61BB70B881F991F5A95A9F719
:1008B00080959095BC01CD010895052E97FB1EF4FF
:1008C00000940E94740457FD07D00E947C0407FC2A
:1008D00003D04EF40C9474045095409530952195B6
:1008E0003F4F4F4F5F4F089590958095709561955C
:1008F0007F4F8F4F9F4F0895A1E21A2EAA1BBB1B5B
:10090000FD010DC0AA1FBB1FEE1FFF1FA217B307DB
:10091000E407F50720F0A21BB30BE40BF50B661FF1
:10092000771F881F991F1A9469F7609570958095B5
:1009300090959B01AC01BD01CF010895FB01DC0145
:100940004150504048F001900D920020C9F701C07D
:0E0950001D9241505040E0F70895F894FFCFFB
:10095E000000000000001400000000000000000075
:10096E000000000000000000000000000000000079
:10097E000000000000000000000000000000000069
:10098E0000010507205F050000000000C618638007
:10099E00014A290000004A7DF59502C417471F0140
:1009AE006322223206261551930586080000008820
:1009BE000821080282208488008054570900809004
:1009CE004F0800000060880000800F00000000004B
:1009DE008C0100222202002EE63AA303C4104288A4
:1009EE00032E4244C4072E4207A30388A9F4110222
:1009FE003F8407A3032E8617A3033F424408012E0C
:100A0E004617A3032E460FA303C018600C00C01890
:100A1E006088008888200802007CF001008220880F
:100A2E0088002E424400012E425BAB0344C51F6377
:100A3E00042FC617E3032E8610A2032FC618E30356
:100A4E003F8417C2073F841742002E861EA307312C
:100A5E00C61F63048E10428803104218A3033195FB
:100A6E00515204218410C20771D71A630471D61C27
:100A7E0063042EC618A3032FC61742002EC6589322
:100A8E00052FC61763042E0607A3039F1042080105
:100A9E0031C618A30331C618150131C65AAB02313F
:100AAE002AA26204312A4208011F2222C207278489
:100ABE0010C20120088220000E21849003444500BC
:100ACE000000000000C00782200000000038E8A3EC
:100ADE000721B419E30300B810A20310DA1CA30710
:100AEE0000B8F883034C8A238400C0C7E8A1032111
:100AFE00B41963040418428803083084920121A4B7
:100B0E00324A02861042880300AC5A630400B419BC
:100B1E00630400B818A30300BCF8420000D8EC210F
:100B2E000400B419420000B8E0E003421C21240383
:100B3E0000C418B30500C418150100C45AAB020056
:100B4E004445540400C4E8A103007C44C407881043
:100B5E004108028410420801821044880000888AED
:100B6E00000003400080031003800320004000209B
:100B7E000010000800040002000154455354000008
:00000001FF
