:100000000C943A000C9457000C9457000C94570031
:100010000C9457000C9457000C9457000C94570004
:100020000C9457000C9457000C9457000C945700F4
:100030000C9457000C9457000C9457000C945700E4
:100040000C9457000C9457000C9457000C945700D4
:100050000C9457000C9457000C9457000C945700C4
:100060000C9457000C9457000C9457000C945700B4
:100070000C94570011241FBECFEFD4E0DEBFCDBFDC
:1000800013E0A0E0B1E0E8E3F0E102C005900D92DA
:10009000A23CB107D9F723E0A2ECB3E001C01D9266
:1000A000AD3DB207E1F70E9442070C941A080C9488
:1000B00000008091C2039091C3032091020130910E
:1000C000030182179307BCF42091000130910101D4
:1000D000232B89F08931910574F401969093C30321
:1000E0008093C203880F991FFC01EC5FFE4F808153
:1000F00091810C94870608958091000190910101EF
:10010000892BD9F08091C2039091C3032091020101
:1001100030910301215031098217930774F0019740
:100120009093C3038093C203880F991FFC01EC5F77
:10013000FE4F808191810C94870608958091000183
:1001400090910101892B89F12091C2033091C30361
:1001500080910201909103010297281739072CF131
:100160002931310579F060E080E00E943707809105
:10017000C2030E9481010E948B051092010110921E
:10018000000108950E948B0581E090E00E949C068A
:1001900085E793E00E94870682E090E09093C50394
:1001A0008093C40381E40C94810108950E94790135
:1001B000082E000C990B9093C3038093C2038134E3
:1001C000910541F481E090E00E949C068BE793E06A
:1001D0000C9487068234910511F40C948B0580E011
:1001E00090E00E949C06E091C203F091C303EE0FE1
:1001F000FF1FEC5FFE4F808191810E94870661E0C6
:1002000080E00E9437078091C2039091C303039658
:10021000909303018093020181E090E090930101AB
:1002200080930001089584E00E94C803882329F187
:1002300083E090E090930301809302011092C30346
:100240001092C20381E090E09093C5038093C403B1
:100250000E948B0580E090E00E949C06E091C20322
:10026000F091C303EE0FFF1FEC5FFE4F8081918181
:100270000E94870683E50E9481010E9477018823FE
:10028000A1F00E947901833581F40E948B0560E022
:1002900080E00E94370781E090E09093C50380934F
:1002A000C4031092010110920001089583E090E0D0
:1002B00090930301809302011092C3031092C20332
:1002C00081E090E09093C5038093C4030E948B0566
:1002D000E091C203F091C303EE0FFF1FEC5FFE4FEE
:1002E000808191810E94870682E40C9481010C94A4
:1002F000B2020C94D3020C94B8020C94BE020C947B
:10030000C4020E94C4020E94BE028823E1F38CE270
:1003100091E00197F1F70E94B20281110C947901EA
:1003200008950C94DA02CF93DF9300D01F92CDB7DB
:10033000DEB780914B0390914C03A0914D038983CC
:100340009A83AB83509A589A0E9485028FE690E078
:100350000E941C0281E090E00E94740261E070E063
:1003600081E090E00E9460020E944C02CE01019662
:100370000E949A020F900F900F90DF91CF910895F5
:10038000CF93DF93DC01FB0160E070E080E0C1E02F
:10039000D0E08417C9F09191BE01092E02C0660F0A
:1003A000771F0A94E2F76F5F7F4F769567956A0F24
:1003B0007B1F02C0769567959A95E2F76F3F7105AE
:1003C00019F010F08F5FE5CFF9016083DF91CF91D5
:1003D0000895E1E6F0E080E880831082A89584B774
:1003E000877F84BFE0E6F0E08081886180831082AF
:1003F00008951092800084E080938100109285001F
:100400001092840008958091840090918500089551
:10041000AC0180918400909185009C01241B350BD8
:10042000283E3340B0F70895209184003091850034
:10043000820F931F0C940802CF93DF931F92CDB7C6
:10044000DEB79E012F5F3F4F45E06EE473E00E94F0
:10045000C00191E0980F909338019981915097BD18
:1004600018BC95B5977039F095B520913801277073
:10047000987F922B95BD298130E0E82FF0E0E25B78
:10048000FC4FC901008002C0880F991F0A94E2F74F
:100490000F90DF91CF91089585B3897F85BB85B596
:1004A000909138019770887F892B85BD089585B517
:1004B000887F85BD089585B382FB882780F90895DC
:1004C000009719F0019741F0089584B58F736295F4
:1004D000660F660F607C05C084B563706295607FAF
:1004E0008F7C682B64BD0895009741F0019759F403
:1004F00084B58E7F84BD84B5826002C084B58C7F54
:1005000084BD81E0089580E0089514BC15BC16BC3C
:1005100018BC84B58E7F84BD84B5826084BD81E0C3
:1005200008959C01215031093093CD008150809372
:10053000CC000895CF93DF93EC01888199810E94CC
:1005400091028A819BEF980F943008F088E098E13F
:100550009093C9008550880F8093CA0081E0DF9195
:10056000CF9108958091C800881F8827881F08951B
:100570008091C80085FB882780F908958091C80084
:1005800086FB882780F90895CF93C82F0E94B80270
:100590008823E1F38091C80080648093C800C093F1
:1005A000CE00CF9108958091C80087FFFCCF809145
:1005B000CE000895CF93DF93EC018991882319F041
:1005C0000E94C402FACFDF91CF910895853098F44C
:1005D000673088F421E030E001C0220F6A95EAF725
:1005E000E82FF0E0E953FC4F922F9095808189230A
:1005F0004111822B80830895853080F4673070F438
:1006000021E030E001C0220F6A95EAF7E82FF0E020
:10061000E953FC4F8081282381E009F480E00895AC
:100620006091C603E62FF0E0E953FC4F80810E9401
:100630005E038091C6038F5F853018F48093C603F4
:1006400008951092C6030895E7ECF3E0108211823A
:1006500012821382148208950E943C030C94240396
:100660009C01FC01FF2784A1832B84A395A1892FE2
:10067000832B85A381E00895CF93DF93CDE5D3E06D
:10068000899199910E94300383E0CB36D807C1F756
:1006900083E090E40E94300380E090E80E94300301
:1006A00083E090E10E94300383E090E80E943003F1
:1006B00083E090E2DF91CF910C943003E091CC0382
:1006C000F0E0EE0FFF1FED5AFC4F20813181F90160
:1006D000FF2795A1932B95A3EDE5F3E097E020810B
:1006E0003181D901BB2795962C91959780FF03C046
:1006F0003095232301C0232B95962C9386959150FA
:1007000032969111ECCFE62FF0E0EE0FFF1FED5A7D
:10071000FC4F80819181FC01FF2785A19095892361
:1007200085A36093CC0308956230710519F170F4CC
:100730006130710559F5FC01FF2724A1392F30954F
:10074000922F932394A385A183231DC06330710549
:1007500041F064307105D1F4FC01FF2784A1892B9D
:100760000FC0FC01FF2784A1892B84A385A190954C
:10077000892309C0FC01FF2784A1292F209582230A
:1007800084A385A1892B85A381E0089580E0089545
:10079000E82FF0E0EE0FFF1FE353FC4F808188232A
:1007A00021F0918181E0892702C080E090E0817092
:1007B0000895E82FF0E0EE0FFF1FE353FC4F808118
:1007C000811102C0818102C080E090E081700895B3
:1007D000E82FF0E0EE0FFF1FE353FC4F80810895F8
:1007E000E82FF0E0EE0FFF1FE353FC4F908181E014
:1007F000892708957F928F929F92AF92BF92CF9256
:10080000DF92EF92FF920F931F93CF93DF93CDEC84
:10081000D3E05BE6C52E53E0D52E66E0762E8881C8
:100820008983F601019111916F015801BB24F501F3
:1008300024A1E12EFF2485A190E08E219F2130E0AC
:100840002E213F21232B31F0892B51F433E0832ECD
:10085000912C0DC0892B41F488248394912C07C0DE
:1008600094E0892E912C03C082E0882E912C64E0C4
:1008700070E0C8010E94940362E070E0C8010E9429
:100880009403872D8A95F1F7F50183A190E0E82282
:10089000F92281E0EF2809F080E08883B401C801E3
:1008A0000E9494032296F3E0C73DDF0709F0B7CF1B
:1008B000DF91CF911F910F91FF90EF90DF90CF903C
:1008C000BF90AF909F908F907F900895089500976C
:1008D00089F0FC012381621B67FD09C0062E000C14
:1008E000770B248130E081E0621773070CF080E021
:1008F0008170089580E00895CF93DF93FC01892BE8
:1009000079F18181481760F59281291748F5938123
:10091000A62FA91BA7FD24C00A2E000CBB0BC48167
:10092000D0E0AC17BD07E4F4622F0E949C07480F8B
:10093000858190E0BD010E94A5070696242F26958B
:1009400026952695E80FF91FE20FF11D808190E0B2
:10095000477002C0959587954A95E2F7817001C06E
:1009600080E0DF91CF910895CF93DF93EC010E9457
:10097000F9019E0140E050E062E17AE780E090E01A
:100980000E94CA073093DA032093D903DF91CF91F5
:1009900008958091D7039091D8030E940802209176
:1009A000D7033091D8038091D9039091DA03820F55
:1009B000931F9093D8038093D7030895692F0C94C5
:1009C000FC0241E0611101C040E0692F0C94E60295
:1009D0000C94E1045F926F927F928F929F92AF92FC
:1009E000BF92CF92DF92EF92FF920F931F93CF931C
:1009F000DF93562E872E942E5C01E62EF72EC62FFF
:100A0000660FDD0BC81BD10987FDD395072F770F24
:100A1000110B091B110997FD1395D7FF03C077240C
:100A20007A9402C07724739417FF03C066246A94F3
:100A300002C066246394D7FF03C0D195C195D10944
:100A400017FF03C0119501951109C017D107A4F034
:100A50006E01D594C794F92EA51411F1692D8A2D34
:100A60009F2D0E94E104C01AD10AD7FE03C0CC0E0C
:100A7000DD1EF60CA70CF0CF6801D594C794E82EC4
:100A8000B81471F0692D8E2D9B2D0E94E104CC1AB3
:100A9000DD0AD7FE03C0C00ED11EE70CB60CF0CFA6
:100AA000692DC701DF91CF911F910F91FF90EF90BA
:100AB000DF90CF90BF90AF909F908F907F906F907E
:100AC0005F900C94E104FF920F931F93CF93DF93F9
:100AD000D82FF92E162FC72F042F792F0E94EA0442
:100AE000402F6D2F7C2F8D2F9F2D0E94EA04402FC9
:100AF000612F7C2F812F9F2D0E94EA04402F612FB0
:100B00007C2F8D2F9C2F0E94EA04DF91CF911F91A3
:100B10000F91FF9008950E942403E9E3F1E0118A08
:100B200014860895DF92EF92FF920F931F93CF9355
:100B3000DF93D82E7B01162F0F2D80913B019091D2
:100B40003C01D0E0019799F50F2D0D1BE09141017B
:100B5000F09142018181C0E0D817B8F48091410141
:100B600090914201FC012281C21768F42C2F4D2F75
:100B70006D2D0E947C04682F8E2D8C0F902F0E946B
:100B8000E104CF5FEBCFDF5FDFCFE0914101F09178
:100B900042018281C81740F460E08E2D8C0F902FA7
:100BA0000E94E104CF5FF1CF015030C0DF5F1E2D06
:100BB0001D0FE0914101F09142018181C0E0D81701
:100BC000A8F48091410190914201FC012281C21759
:100BD00068F72C2F4D2F6D2D0E947C04682F812FDC
:100BE0009F2D9C0F0E94E104CF5FEBCFE09141016C
:100BF000F09142018281C81740F460E0812F9F2D5F
:100C00009C0F0E94E104CF5FF1CF1F5F812F902FD7
:100C1000DF91CF911F910F91FF90EF90DF9008959A
:100C20000F931F93CF938C01C0E0F80181918F0146
:100C3000882341F00E949205BC01CF5F853014F4F7
:100C400077FFF3CF8C2FCF911F910F9108950F93C2
:100C50001F93CF93DF93109245014093460110926A
:100C6000490100914101109142010115110509F45A
:100C700049C09B01EC01F801818160913F017091B5
:100C8000400190E00E94A507BC0180914301909132
:100C900044010E94B607CB016AE070E00E94A507FC
:100CA000909348018093470130933E0120933D018A
:100CB00040E250E0BE018AE491E00E940B0880917E
:100CC000390190913A010197E9F4FE010190002069
:100CD000E9F73197BF016C1B7D0BF80181818F5FB4
:100CE0000E949C07815020913B0130913C012130B2
:100CF000310511F095E001C097E0981718F48EEFD8
:100D000080934901DF91CF911F910F910895209118
:100D10003B0130913C012130310511F070E001C000
:100D200076E04FEF60E00E942706089590E09093F0
:100D3000400180933F01089590933A0180933901D7
:100D4000089590933C0180933B0108959093420154
:100D50008093410108958091DB039091DC0301961B
:100D60009093DC038093DB0320914701309148018D
:100D70008217930708F469C01092DC031092DB031A
:100D8000E0914501F0E0E75CFE4F818981110AC0E6
:100D900080914601823008F458C08150809346010A
:100DA000109245018091450190E0FC01E75CFE4F07
:100DB0002189222309F449C04091390150913A0117
:100DC000209149014115510521F04130510599F01B
:100DD00024C0211122C060913D0170913E01865BCB
:100DE0009E4F0E94100690E0019790914501890F57
:100DF0008093450112C060913D0170913E01409188
:100E00003B0150913C014130510511F4720F01C07A
:100E1000621B865B9E4F0E941006809149018F5F86
:100E200080934901082E000C990BE0914101F0914B
:100E30004201218130E0281739073CF41092490122
:100E4000809145018F5F809345010C941003CF93EF
:100E5000DF93C9E3D1E09B878A870E942C0384E15A
:100E600090E09F838E83DF91CF910C948B0581114D
:100E700005C0662311F0429A0895429808953A9A5F
:100E8000429A08950E94E9010E9466040E9493011B
:100E90000E943F0786E292E00E94B40486E292E05C
:100EA0000E9427078AE691E00E94A6068AE00E9437
:100EB000960681E090E00E949C0682E893E00E9402
:100EC00087060E94C9040E94AB060E94FA030E9492
:100ED00010038091C4039091C5038130910539F0CE
:100EE00018F00297E9F0EDCF0E941301EACF80E0FD
:100EF0000E94C80381110E94590082E00E94C80329
:100F000081110E947C0084E00E94C80381110E942C
:100F10009E000E9477018823A1F20E94D600D1CFC3
:100F200084E00E94C803882361F280E090E00E9480
:100F30009C060E945601C5CF002480FD060E660F58
:100F400011F08695D1F7802D08950024552704C00F
:100F5000080E591F880F991F009729F076956795FD
:100F6000B8F37105B9F7802D952F0895AA1BBB1B07
:100F700051E107C0AA1FBB1FA617B70710F0A61B99
:100F8000B70B881F991F5A95A9F780959095BC01BA
:100F9000CD010895052E97FB1EF400940E94E107F1
:100FA00057FD07D00E94E90707FC03D04EF40C94CC
:100FB000E10750954095309521953F4F4F4F5F4F3A
:100FC000089590958095709561957F4F8F4F9F4FB5
:100FD0000895A1E21A2EAA1BBB1BFD010DC0AA1F7A
:100FE000BB1FEE1FFF1FA217B307E407F50720F092
:100FF000A21BB30BE40BF50B661F771F881F991F0D
:101000001A9469F760957095809590959B01AC0155
:10101000BD01CF010895FB01DC014150504048F073
:1010200001900D920020C9F701C01D92415050401F
:08103000E0F70895F894FFCFEA
:1010380001000300910393039503970399039B030E
:101048009D039F03A103A303A503A703A903AB0360
:10105800AD03AF03B1038003B3038F03B503B70335
:10106800B903BB03BD03BF03010000000000001467
:101078000000000000000000000000000000000068
:101088000000000000000000000000000000000058
:1010980000000000000000000000010507205F05B7
:1010A8000000000000C6186380014A290000004AB9
:1010B8007DF59502C417471F0163222232062615C3
:1010C80051930586080000008808210802822084C0
:1010D8008800805457090080904F080000006088FD
:1010E8000000800F00000000008C01002222020096
:1010F8002EE63AA303C4104288032E4244C4072EA6
:101108004207A30388A9F411023F8407A3032E868C
:1011180017A3033F424408012E4617A3032E460F88
:10112800A303C018600C00C01860880088882008D5
:1011380002007CF0010082208888002E42440001D1
:101148002E425BAB0344C51F63042FC617E3032E6F
:101158008610A2032FC618E3033F8417C2073F84F3
:101168001742002E861EA30731C61F63048E104245
:101178008803104218A3033195515204218410C2E8
:101188000771D71A630471D61C63042EC618A3030B
:101198002FC61742002EC65893052FC61763042E74
:1011A8000607A3039F1042080131C618A30331C6DE
:1011B80018150131C65AAB02312AA26204312A42FB
:1011C80008011F2222C207278410C201200882209A
:1011D800000E218490034445000000000000C00771
:1011E80082200000000038E8A30721B419E30300B7
:1011F800B810A20310DA1CA30700B8F883034C8ABE
:10120800238400C0C7E8A10321B419630404184269
:101218008803083084920121A4324A028610428849
:101228000300AC5A630400B419630400B818A3039C
:1012380000BCF8420000D8EC210400B419420000B8
:10124800B8E0E003421C21240300C418B30500C41D
:1012580018150100C45AAB02004445540400C4E800
:10126800A103007C44C40788104108028410420886
:1012780001821044880000888A0000D0000800031A
:1012880006080A0340008003100380032000400082
:10129800200010000800040002000103800340033E
:1012A80020008003104C4F5345520057494E4E457D
:1012B8005200505245535320544F205354415254D6
:1012C80000410042004300440045004600470048F2
:1012D8000049004A004B004C004D004E004F0050A2
:1012E8000051005300550056005700580059005A45
:0212F8000000F4
:00000001FF
